{
  "contractName": "Crowdsale",
  "abi": [
    {
      "inputs": [
        {
          "internalType": "string",
          "name": "name_",
          "type": "string"
        },
        {
          "internalType": "string",
          "name": "symbol_",
          "type": "string"
        },
        {
          "internalType": "uint256",
          "name": "initialSupply_",
          "type": "uint256"
        }
      ],
      "stateMutability": "nonpayable",
      "type": "constructor"
    },
    {
      "inputs": [
        {
          "internalType": "address",
          "name": "",
          "type": "address"
        }
      ],
      "name": "investors",
      "outputs": [
        {
          "internalType": "uint256",
          "name": "",
          "type": "uint256"
        }
      ],
      "stateMutability": "view",
      "type": "function",
      "constant": true
    },
    {
      "inputs": [
        {
          "internalType": "uint256",
          "name": "",
          "type": "uint256"
        }
      ],
      "name": "investorsList",
      "outputs": [
        {
          "internalType": "address",
          "name": "",
          "type": "address"
        }
      ],
      "stateMutability": "view",
      "type": "function",
      "constant": true
    },
    {
      "inputs": [
        {
          "internalType": "uint256",
          "name": "",
          "type": "uint256"
        }
      ],
      "name": "periodList",
      "outputs": [
        {
          "internalType": "uint256",
          "name": "startDate",
          "type": "uint256"
        },
        {
          "internalType": "uint256",
          "name": "endDate",
          "type": "uint256"
        },
        {
          "internalType": "uint256",
          "name": "rate",
          "type": "uint256"
        },
        {
          "internalType": "uint256",
          "name": "minAmount",
          "type": "uint256"
        },
        {
          "internalType": "uint256",
          "name": "maxAmount",
          "type": "uint256"
        }
      ],
      "stateMutability": "view",
      "type": "function",
      "constant": true
    },
    {
      "inputs": [],
      "name": "token",
      "outputs": [
        {
          "internalType": "contract ERC20Token",
          "name": "",
          "type": "address"
        }
      ],
      "stateMutability": "view",
      "type": "function",
      "constant": true
    },
    {
      "inputs": [
        {
          "internalType": "address",
          "name": "",
          "type": "address"
        }
      ],
      "name": "tokens",
      "outputs": [
        {
          "internalType": "uint256",
          "name": "",
          "type": "uint256"
        }
      ],
      "stateMutability": "view",
      "type": "function",
      "constant": true
    },
    {
      "inputs": [],
      "name": "owner",
      "outputs": [
        {
          "internalType": "address",
          "name": "",
          "type": "address"
        }
      ],
      "stateMutability": "view",
      "type": "function",
      "constant": true
    },
    {
      "inputs": [
        {
          "internalType": "uint256",
          "name": "amount",
          "type": "uint256"
        }
      ],
      "name": "foo",
      "outputs": [],
      "stateMutability": "nonpayable",
      "type": "function"
    }
  ],
  "bytecode": "0x60806040523480156200001157600080fd5b5060405162001dfe38038062001dfe8339818101604052810190620000379190620001d3565b808383604051620000489062000152565b6200005693929190620002ad565b604051809103906000f08015801562000073573d6000803e3d6000fd5b506000806101000a81548173ffffffffffffffffffffffffffffffffffffffff021916908373ffffffffffffffffffffffffffffffffffffffff16021790555033601460006101000a81548173ffffffffffffffffffffffffffffffffffffffff021916908373ffffffffffffffffffffffffffffffffffffffff160217905550734f96fe3b7a6cf9725f59d353f723c1bdb64ca6aa601360006101000a81548173ffffffffffffffffffffffffffffffffffffffff021916908373ffffffffffffffffffffffffffffffffffffffff160217905550505050620003da565b61143480620009ca83390190565b600082601f8301126200017257600080fd5b815162000189620001838262000326565b620002f8565b91508082526020830160208301858383011115620001a657600080fd5b620001b383828462000379565b50505092915050565b600081519050620001cd81620003c0565b92915050565b600080600060608486031215620001e957600080fd5b600084015167ffffffffffffffff8111156200020457600080fd5b620002128682870162000160565b935050602084015167ffffffffffffffff8111156200023057600080fd5b6200023e8682870162000160565b92505060406200025186828701620001bc565b9150509250925092565b6000620002688262000353565b6200027481856200035e565b93506200028681856020860162000379565b6200029181620003af565b840191505092915050565b620002a7816200036f565b82525050565b6000606082019050620002c460008301866200029c565b8181036020830152620002d881856200025b565b90508181036040830152620002ee81846200025b565b9050949350505050565b6000604051905081810181811067ffffffffffffffff821117156200031c57600080fd5b8060405250919050565b600067ffffffffffffffff8211156200033e57600080fd5b601f19601f8301169050602081019050919050565b600081519050919050565b600082825260208201905092915050565b6000819050919050565b60005b83811015620003995780820151818401526020810190506200037c565b83811115620003a9576000848401525b50505050565b6000601f19601f8301169050919050565b620003cb816200036f565b8114620003d757600080fd5b50565b6105e080620003ea6000396000f3fe608060405234801561001057600080fd5b506004361061007d5760003560e01c80638da5cb5b1161005b5780638da5cb5b146100fe578063d1f78e981461011c578063e486033914610150578063fc0c546a146101805761007d565b80632ccc8727146100825780632fbebd38146100b25780636f7bc9be146100ce575b600080fd5b61009c600480360381019061009791906103d6565b61019e565b6040516100a9919061042c565b60405180910390f35b6100cc60048036038101906100c791906103d6565b6101da565b005b6100e860048036038101906100e39190610384565b61028d565b6040516100f5919061048b565b60405180910390f35b6101066102a5565b604051610113919061042c565b60405180910390f35b610136600480360381019061013191906103d6565b6102cf565b6040516101479594939291906104a6565b60405180910390f35b61016a60048036038101906101659190610384565b610308565b604051610177919061048b565b60405180910390f35b610188610320565b6040516101959190610470565b60405180910390f35b600381815481106101ab57fe5b906000526020600020016000915054906101000a900473ffffffffffffffffffffffffffffffffffffffff1681565b601360009054906101000a900473ffffffffffffffffffffffffffffffffffffffff1673ffffffffffffffffffffffffffffffffffffffff1663a9059cbb30836040518363ffffffff1660e01b8152600401610237929190610447565b602060405180830381600087803b15801561025157600080fd5b505af1158015610265573d6000803e3d6000fd5b505050506040513d601f19601f8201168201806040525081019061028991906103ad565b5050565b60016020528060005260406000206000915090505481565b6000601460009054906101000a900473ffffffffffffffffffffffffffffffffffffffff16905090565b600481600381106102dc57fe5b600502016000915090508060000154908060010154908060020154908060030154908060040154905085565b60026020528060005260406000206000915090505481565b6000809054906101000a900473ffffffffffffffffffffffffffffffffffffffff1681565b60008135905061035481610565565b92915050565b6000815190506103698161057c565b92915050565b60008135905061037e81610593565b92915050565b60006020828403121561039657600080fd5b60006103a484828501610345565b91505092915050565b6000602082840312156103bf57600080fd5b60006103cd8482850161035a565b91505092915050565b6000602082840312156103e857600080fd5b60006103f68482850161036f565b91505092915050565b610408816104f9565b82525050565b61041781610541565b82525050565b61042681610537565b82525050565b600060208201905061044160008301846103ff565b92915050565b600060408201905061045c60008301856103ff565b610469602083018461041d565b9392505050565b6000602082019050610485600083018461040e565b92915050565b60006020820190506104a0600083018461041d565b92915050565b600060a0820190506104bb600083018861041d565b6104c8602083018761041d565b6104d5604083018661041d565b6104e2606083018561041d565b6104ef608083018461041d565b9695505050505050565b600061050482610517565b9050919050565b60008115159050919050565b600073ffffffffffffffffffffffffffffffffffffffff82169050919050565b6000819050919050565b600061054c82610553565b9050919050565b600061055e82610517565b9050919050565b61056e816104f9565b811461057957600080fd5b50565b6105858161050b565b811461059057600080fd5b50565b61059c81610537565b81146105a757600080fd5b5056fea264697066735822122009a3177842706c9790c13c9fc9a224a2fc0096baa7f38f2604d5b9198138040864736f6c634300060b003360806040523480156200001157600080fd5b506040516200143438038062001434833981810160405260608110156200003757600080fd5b8101908080519060200190929190805160405193929190846401000000008211156200006257600080fd5b838201915060208201858111156200007957600080fd5b82518660018202830111640100000000821117156200009757600080fd5b8083526020830192505050908051906020019080838360005b83811015620000cd578082015181840152602081019050620000b0565b50505050905090810190601f168015620000fb5780820380516001836020036101000a031916815260200191505b50604052602001805160405193929190846401000000008211156200011f57600080fd5b838201915060208201858111156200013657600080fd5b82518660018202830111640100000000821117156200015457600080fd5b8083526020830192505050908051906020019080838360005b838110156200018a5780820151818401526020810190506200016d565b50505050905090810190601f168015620001b85780820380516001836020036101000a031916815260200191505b5060405250505081818160039080519060200190620001d992919062000393565b508060049080519060200190620001f292919062000393565b5050506200020733846200021060201b60201c565b50505062000442565b600073ffffffffffffffffffffffffffffffffffffffff168273ffffffffffffffffffffffffffffffffffffffff161415620002b4576040517f08c379a000000000000000000000000000000000000000000000000000000000815260040180806020018281038252601f8152602001807f45524332303a206d696e7420746f20746865207a65726f20616464726573730081525060200191505060405180910390fd5b620002c8600083836200038e60201b60201c565b80600260008282540192505081905550806000808473ffffffffffffffffffffffffffffffffffffffff1673ffffffffffffffffffffffffffffffffffffffff168152602001908152602001600020600082825401925050819055508173ffffffffffffffffffffffffffffffffffffffff16600073ffffffffffffffffffffffffffffffffffffffff167fddf252ad1be2c89b69c2b068fc378daa952ba7f163c4a11628f55a4df523b3ef836040518082815260200191505060405180910390a35050565b505050565b828054600181600116156101000203166002900490600052602060002090601f016020900481019282601f10620003d657805160ff191683800117855562000407565b8280016001018555821562000407579182015b8281111562000406578251825591602001919060010190620003e9565b5b5090506200041691906200041a565b5090565b6200043f91905b808211156200043b57600081600090555060010162000421565b5090565b90565b610fe280620004526000396000f3fe608060405234801561001057600080fd5b50600436106100a95760003560e01c80633950935111610071578063395093511461025f57806370a08231146102c557806395d89b411461031d578063a457c2d7146103a0578063a9059cbb14610406578063dd62ed3e1461046c576100a9565b806306fdde03146100ae578063095ea7b31461013157806318160ddd1461019757806323b872dd146101b5578063313ce5671461023b575b600080fd5b6100b66104e4565b6040518080602001828103825283818151815260200191508051906020019080838360005b838110156100f65780820151818401526020810190506100db565b50505050905090810190601f1680156101235780820380516001836020036101000a031916815260200191505b509250505060405180910390f35b61017d6004803603604081101561014757600080fd5b81019080803573ffffffffffffffffffffffffffffffffffffffff16906020019092919080359060200190929190505050610586565b604051808215151515815260200191505060405180910390f35b61019f6105a4565b6040518082815260200191505060405180910390f35b610221600480360360608110156101cb57600080fd5b81019080803573ffffffffffffffffffffffffffffffffffffffff169060200190929190803573ffffffffffffffffffffffffffffffffffffffff169060200190929190803590602001909291905050506105ae565b604051808215151515815260200191505060405180910390f35b6102436106bc565b604051808260ff1660ff16815260200191505060405180910390f35b6102ab6004803603604081101561027557600080fd5b81019080803573ffffffffffffffffffffffffffffffffffffffff169060200190929190803590602001909291905050506106c5565b604051808215151515815260200191505060405180910390f35b610307600480360360208110156102db57600080fd5b81019080803573ffffffffffffffffffffffffffffffffffffffff169060200190929190505050610768565b6040518082815260200191505060405180910390f35b6103256107b0565b6040518080602001828103825283818151815260200191508051906020019080838360005b8381101561036557808201518184015260208101905061034a565b50505050905090810190601f1680156103925780820380516001836020036101000a031916815260200191505b509250505060405180910390f35b6103ec600480360360408110156103b657600080fd5b81019080803573ffffffffffffffffffffffffffffffffffffffff16906020019092919080359060200190929190505050610852565b604051808215151515815260200191505060405180910390f35b6104526004803603604081101561041c57600080fd5b81019080803573ffffffffffffffffffffffffffffffffffffffff16906020019092919080359060200190929190505050610953565b604051808215151515815260200191505060405180910390f35b6104ce6004803603604081101561048257600080fd5b81019080803573ffffffffffffffffffffffffffffffffffffffff169060200190929190803573ffffffffffffffffffffffffffffffffffffffff169060200190929190505050610971565b6040518082815260200191505060405180910390f35b606060038054600181600116156101000203166002900480601f01602080910402602001604051908101604052809291908181526020018280546001816001161561010002031660029004801561057c5780601f106105515761010080835404028352916020019161057c565b820191906000526020600020905b81548152906001019060200180831161055f57829003601f168201915b5050505050905090565b600061059a6105936109f8565b8484610a00565b6001905092915050565b6000600254905090565b60006105bb848484610bf7565b6000600160008673ffffffffffffffffffffffffffffffffffffffff1673ffffffffffffffffffffffffffffffffffffffff16815260200190815260200160002060006106066109f8565b73ffffffffffffffffffffffffffffffffffffffff1673ffffffffffffffffffffffffffffffffffffffff1681526020019081526020016000205490508281101561069c576040517f08c379a0000000000000000000000000000000000000000000000000000000008152600401808060200182810382526028815260200180610f176028913960400191505060405180910390fd5b6106b0856106a86109f8565b858403610a00565b60019150509392505050565b60006012905090565b600061075e6106d26109f8565b8484600160006106e06109f8565b73ffffffffffffffffffffffffffffffffffffffff1673ffffffffffffffffffffffffffffffffffffffff16815260200190815260200160002060008873ffffffffffffffffffffffffffffffffffffffff1673ffffffffffffffffffffffffffffffffffffffff1681526020019081526020016000205401610a00565b6001905092915050565b60008060008373ffffffffffffffffffffffffffffffffffffffff1673ffffffffffffffffffffffffffffffffffffffff168152602001908152602001600020549050919050565b606060048054600181600116156101000203166002900480601f0160208091040260200160405190810160405280929190818152602001828054600181600116156101000203166002900480156108485780601f1061081d57610100808354040283529160200191610848565b820191906000526020600020905b81548152906001019060200180831161082b57829003601f168201915b5050505050905090565b600080600160006108616109f8565b73ffffffffffffffffffffffffffffffffffffffff1673ffffffffffffffffffffffffffffffffffffffff16815260200190815260200160002060008573ffffffffffffffffffffffffffffffffffffffff1673ffffffffffffffffffffffffffffffffffffffff16815260200190815260200160002054905082811015610934576040517f08c379a0000000000000000000000000000000000000000000000000000000008152600401808060200182810382526025815260200180610f886025913960400191505060405180910390fd5b61094861093f6109f8565b85858403610a00565b600191505092915050565b60006109676109606109f8565b8484610bf7565b6001905092915050565b6000600160008473ffffffffffffffffffffffffffffffffffffffff1673ffffffffffffffffffffffffffffffffffffffff16815260200190815260200160002060008373ffffffffffffffffffffffffffffffffffffffff1673ffffffffffffffffffffffffffffffffffffffff16815260200190815260200160002054905092915050565b600033905090565b600073ffffffffffffffffffffffffffffffffffffffff168373ffffffffffffffffffffffffffffffffffffffff161415610a86576040517f08c379a0000000000000000000000000000000000000000000000000000000008152600401808060200182810382526024815260200180610f646024913960400191505060405180910390fd5b600073ffffffffffffffffffffffffffffffffffffffff168273ffffffffffffffffffffffffffffffffffffffff161415610b0c576040517f08c379a0000000000000000000000000000000000000000000000000000000008152600401808060200182810382526022815260200180610ecf6022913960400191505060405180910390fd5b80600160008573ffffffffffffffffffffffffffffffffffffffff1673ffffffffffffffffffffffffffffffffffffffff16815260200190815260200160002060008473ffffffffffffffffffffffffffffffffffffffff1673ffffffffffffffffffffffffffffffffffffffff168152602001908152602001600020819055508173ffffffffffffffffffffffffffffffffffffffff168373ffffffffffffffffffffffffffffffffffffffff167f8c5be1e5ebec7d5bd14f71427d1e84f3dd0314c0f7b2291e5b200ac8c7c3b925836040518082815260200191505060405180910390a3505050565b600073ffffffffffffffffffffffffffffffffffffffff168373ffffffffffffffffffffffffffffffffffffffff161415610c7d576040517f08c379a0000000000000000000000000000000000000000000000000000000008152600401808060200182810382526025815260200180610f3f6025913960400191505060405180910390fd5b600073ffffffffffffffffffffffffffffffffffffffff168273ffffffffffffffffffffffffffffffffffffffff161415610d03576040517f08c379a0000000000000000000000000000000000000000000000000000000008152600401808060200182810382526023815260200180610eac6023913960400191505060405180910390fd5b610d0e838383610ea6565b60008060008573ffffffffffffffffffffffffffffffffffffffff1673ffffffffffffffffffffffffffffffffffffffff16815260200190815260200160002054905081811015610daa576040517f08c379a0000000000000000000000000000000000000000000000000000000008152600401808060200182810382526026815260200180610ef16026913960400191505060405180910390fd5b8181036000808673ffffffffffffffffffffffffffffffffffffffff1673ffffffffffffffffffffffffffffffffffffffff16815260200190815260200160002081905550816000808573ffffffffffffffffffffffffffffffffffffffff1673ffffffffffffffffffffffffffffffffffffffff168152602001908152602001600020600082825401925050819055508273ffffffffffffffffffffffffffffffffffffffff168473ffffffffffffffffffffffffffffffffffffffff167fddf252ad1be2c89b69c2b068fc378daa952ba7f163c4a11628f55a4df523b3ef846040518082815260200191505060405180910390a350505050565b50505056fe45524332303a207472616e7366657220746f20746865207a65726f206164647265737345524332303a20617070726f766520746f20746865207a65726f206164647265737345524332303a207472616e7366657220616d6f756e7420657863656564732062616c616e636545524332303a207472616e7366657220616d6f756e74206578636565647320616c6c6f77616e636545524332303a207472616e736665722066726f6d20746865207a65726f206164647265737345524332303a20617070726f76652066726f6d20746865207a65726f206164647265737345524332303a2064656372656173656420616c6c6f77616e63652062656c6f77207a65726fa2646970667358221220b3862db272b1f6f965faacfe6e85fc4b7a31dfdb48d565ddd898d3f0011e341264736f6c634300060b0033",
  "immutableReferences": {},
  "source": "// SPDX-License-Identifier: MIT\npragma solidity 0.6.11;\npragma experimental ABIEncoderV2;\n\n//import '@openzeppelin/contracts/token/ERC20/IERC20.sol';\nimport \"@openzeppelin/contracts/utils/math/SafeMath.sol\";\nimport \"@openzeppelin/contracts/access/Ownable.sol\";\nimport './ERC20Token.sol';\n\n\n/**\n * @title Voting\n * @author : louis plessis\n * @notice Projet final\n * @dev administrateur du crowdsale = owner\n */\n contract Crowdsale {\n    using SafeMath for uint;\n    \n    enum periodState {\n        PRESALE,\n        SALE,\n        REFUND\n    }\n    \n    //Changer Period en projet?\n    struct Period {\n        uint startDate;\n        uint endDate;\n        uint rate;\n        uint minAmount;\n        uint maxAmount;\n    }\n    struct Projet {\n        string description;\n        uint voteCount;\n    }\n    \n    struct Donateur {\n        uint period;\n        uint amount; \n        uint projetId;\n    }\n\n    \n\n    ERC20Token public token;\n    \n    mapping(address => uint) public investors;\n    mapping(address => uint) public tokens;\n    address[] public investorsList;\n    \n    Period[3] public periodList; \n    IERC20 dai;\n    address private admin;\n\n\n    constructor(string memory name_, string memory symbol_, uint initialSupply_) public {\n        token = new ERC20Token(initialSupply_, name_, symbol_); // déploiement d'une nouvelle instance\n        admin = msg.sender;\n        dai = IERC20(0x4F96Fe3b7A6Cf9725f59d353F723c1bDb64CA6Aa);\n    }\n\n    modifier onlyAdmin() {\n        require(admin == msg.sender, \"Admin requis\");\n        _;\n    }\n\n      /**\n    * @notice Retourne l'adresse de l'admin/owner.\n    */\n    function owner() external view returns(address) {\n        return admin;\n    }\n   \n\n    // fonction qui permet d'effectuer un transfer de dai ici (sur ce contrat)\n    function foo(uint amount) external {\n        // quelques instructions\n        dai.transfer(address(this), amount);\n    }\n\n   \n}\n",
  "sourcePath": "/Users/louisplessis/Documents/Alyra/ChainForest/contracts/Crowdsale.sol",
  "compiler": {
    "name": "solc",
    "version": "0.6.11+commit.5ef660b1.Emscripten.clang"
  },
  "schemaVersion": "3.3.4",
  "updatedAt": "2021-04-08T16:29:40.855Z",
  "networkType": "ethereum",
  "devdoc": {
    "author": ": louis plessis",
    "details": "administrateur du crowdsale = owner",
    "kind": "dev",
    "methods": {},
    "title": "Voting",
    "version": 1
  },
  "userdoc": {
    "kind": "user",
    "methods": {
      "owner()": {
        "notice": "Retourne l'adresse de l'admin/owner."
      }
    },
    "notice": "Projet final",
    "version": 1
  }
}