{
  "contractName": "Ico",
  "abi": [
    {
      "inputs": [
        {
          "internalType": "address",
          "name": "tokenAddress",
          "type": "address"
        },
        {
          "internalType": "uint256",
          "name": "_duration",
          "type": "uint256"
        },
        {
          "internalType": "uint256",
          "name": "_price",
          "type": "uint256"
        },
        {
          "internalType": "uint256",
          "name": "_availableTokens",
          "type": "uint256"
        },
        {
          "internalType": "uint256",
          "name": "_minPurchase",
          "type": "uint256"
        },
        {
          "internalType": "uint256",
          "name": "_maxPurchase",
          "type": "uint256"
        }
      ],
      "stateMutability": "nonpayable",
      "type": "constructor"
    },
    {
      "inputs": [],
      "name": "CFtoken",
      "outputs": [
        {
          "internalType": "contract ERC20Token",
          "name": "",
          "type": "address"
        }
      ],
      "stateMutability": "view",
      "type": "function",
      "constant": true
    },
    {
      "inputs": [],
      "name": "admin",
      "outputs": [
        {
          "internalType": "address",
          "name": "",
          "type": "address"
        }
      ],
      "stateMutability": "view",
      "type": "function",
      "constant": true
    },
    {
      "inputs": [],
      "name": "availableTokens",
      "outputs": [
        {
          "internalType": "uint256",
          "name": "",
          "type": "uint256"
        }
      ],
      "stateMutability": "view",
      "type": "function",
      "constant": true
    },
    {
      "inputs": [],
      "name": "defiContract",
      "outputs": [
        {
          "internalType": "address",
          "name": "",
          "type": "address"
        }
      ],
      "stateMutability": "view",
      "type": "function",
      "constant": true
    },
    {
      "inputs": [],
      "name": "duration",
      "outputs": [
        {
          "internalType": "uint256",
          "name": "",
          "type": "uint256"
        }
      ],
      "stateMutability": "view",
      "type": "function",
      "constant": true
    },
    {
      "inputs": [],
      "name": "end",
      "outputs": [
        {
          "internalType": "uint256",
          "name": "",
          "type": "uint256"
        }
      ],
      "stateMutability": "view",
      "type": "function",
      "constant": true
    },
    {
      "inputs": [],
      "name": "maxPurchase",
      "outputs": [
        {
          "internalType": "uint256",
          "name": "",
          "type": "uint256"
        }
      ],
      "stateMutability": "view",
      "type": "function",
      "constant": true
    },
    {
      "inputs": [],
      "name": "minPurchase",
      "outputs": [
        {
          "internalType": "uint256",
          "name": "",
          "type": "uint256"
        }
      ],
      "stateMutability": "view",
      "type": "function",
      "constant": true
    },
    {
      "inputs": [],
      "name": "price",
      "outputs": [
        {
          "internalType": "uint256",
          "name": "",
          "type": "uint256"
        }
      ],
      "stateMutability": "view",
      "type": "function",
      "constant": true
    },
    {
      "inputs": [
        {
          "internalType": "address",
          "name": "",
          "type": "address"
        }
      ],
      "name": "sales",
      "outputs": [
        {
          "internalType": "address",
          "name": "invertor",
          "type": "address"
        },
        {
          "internalType": "uint256",
          "name": "daiLoan",
          "type": "uint256"
        },
        {
          "internalType": "uint256",
          "name": "CFAmount",
          "type": "uint256"
        },
        {
          "internalType": "bool",
          "name": "tokensWithdrawn",
          "type": "bool"
        },
        {
          "internalType": "uint256",
          "name": "idProjet",
          "type": "uint256"
        },
        {
          "internalType": "uint256",
          "name": "durationLoan",
          "type": "uint256"
        }
      ],
      "stateMutability": "view",
      "type": "function",
      "constant": true
    },
    {
      "inputs": [],
      "name": "start",
      "outputs": [],
      "stateMutability": "nonpayable",
      "type": "function"
    },
    {
      "inputs": [
        {
          "internalType": "uint256",
          "name": "daiAmount",
          "type": "uint256"
        }
      ],
      "name": "approve",
      "outputs": [],
      "stateMutability": "nonpayable",
      "type": "function"
    },
    {
      "inputs": [
        {
          "internalType": "uint256",
          "name": "daiLoan",
          "type": "uint256"
        },
        {
          "internalType": "uint256",
          "name": "durationLoan",
          "type": "uint256"
        },
        {
          "internalType": "uint256",
          "name": "idProjet",
          "type": "uint256"
        }
      ],
      "name": "buy",
      "outputs": [],
      "stateMutability": "nonpayable",
      "type": "function"
    },
    {
      "inputs": [],
      "name": "withdrawTokens",
      "outputs": [],
      "stateMutability": "nonpayable",
      "type": "function"
    },
    {
      "inputs": [],
      "name": "withdrawDai",
      "outputs": [],
      "stateMutability": "nonpayable",
      "type": "function"
    }
  ],
  "bytecode": "0x6080604052734f96fe3b7a6cf9725f59d353f723c1bdb64ca6aa600960006101000a81548173ffffffffffffffffffffffffffffffffffffffff021916908373ffffffffffffffffffffffffffffffffffffffff160217905550734f96fe3b7a6cf9725f59d353f723c1bdb64ca6aa600a60006101000a81548173ffffffffffffffffffffffffffffffffffffffff021916908373ffffffffffffffffffffffffffffffffffffffff160217905550348015620000bb57600080fd5b5060405162001aeb38038062001aeb8339818101604052810190620000e1919062000395565b85600860006101000a81548173ffffffffffffffffffffffffffffffffffffffff021916908373ffffffffffffffffffffffffffffffffffffffff1602179055506000851162000168576040517f08c379a00000000000000000000000000000000000000000000000000000000081526004016200015f90620005cd565b60405180910390fd5b6000831180156200021c5750600860009054906101000a900473ffffffffffffffffffffffffffffffffffffffff1673ffffffffffffffffffffffffffffffffffffffff16632ab4d0526040518163ffffffff1660e01b815260040160206040518083038186803b158015620001dd57600080fd5b505afa158015620001f2573d6000803e3d6000fd5b505050506040513d601f19601f820116820180604052508101906200021891906200042b565b8311155b6200025e576040517f08c379a00000000000000000000000000000000000000000000000000000000081526004016200025590620005ab565b60405180910390fd5b60008211620002a4576040517f08c379a00000000000000000000000000000000000000000000000000000000081526004016200029b90620005ef565b60405180910390fd5b600081118015620002b55750828111155b620002f7576040517f08c379a0000000000000000000000000000000000000000000000000000000008152600401620002ee9062000611565b60405180910390fd5b33600160006101000a81548173ffffffffffffffffffffffffffffffffffffffff021916908373ffffffffffffffffffffffffffffffffffffffff1602179055508460038190555083600481905550826005819055508160068190555080600781905550505050505050620006b6565b600081519050620003788162000682565b92915050565b6000815190506200038f816200069c565b92915050565b60008060008060008060c08789031215620003af57600080fd5b6000620003bf89828a0162000367565b9650506020620003d289828a016200037e565b9550506040620003e589828a016200037e565b9450506060620003f889828a016200037e565b93505060806200040b89828a016200037e565b92505060a06200041e89828a016200037e565b9150509295509295509295565b6000602082840312156200043e57600080fd5b60006200044e848285016200037e565b91505092915050565b60006200046660348362000633565b91507f5f617661696c61626c65546f6b656e732073686f756c64206265203e2030206160008301527f6e64203c3d206d6178546f74616c537570706c790000000000000000000000006020830152604082019050919050565b6000620004ce60178362000633565b91507f5f6475726174696f6e2073686c6f7564206265203e20300000000000000000006000830152602082019050919050565b600062000510601a8362000633565b91507f5f6d696e50757263686173652073686c6f7564206265203e20300000000000006000830152602082019050919050565b60006200055260318362000633565b91507f5f6d617850757263686173652073686f756c64206265203e203020616e64203c60008301527f3d20617661696c61626c65546f6b656e730000000000000000000000000000006020830152604082019050919050565b60006020820190508181036000830152620005c68162000457565b9050919050565b60006020820190508181036000830152620005e881620004bf565b9050919050565b600060208201905081810360008301526200060a8162000501565b9050919050565b600060208201905081810360008301526200062c8162000543565b9050919050565b600082825260208201905092915050565b6000620006518262000658565b9050919050565b600073ffffffffffffffffffffffffffffffffffffffff82169050919050565b6000819050919050565b6200068d8162000644565b81146200069957600080fd5b50565b620006a78162000678565b8114620006b357600080fd5b50565b61142580620006c66000396000f3fe608060405234801561001057600080fd5b50600436106100f55760003560e01c8063977b055b11610097578063c6b9f06a11610066578063c6b9f06a14610218578063e4b6f7991461024d578063efbe1c1c14610257578063f851a44014610275576100f5565b8063977b055b146101b6578063a035b1fe146101d4578063b759f954146101f2578063be9a65551461020e576100f5565b806340993b26116100d357806340993b2614610154578063569b8e571461017057806369bb4dc21461018e5780638d8f2adb146101ac576100f5565b80630fb5a6b4146100fa5780632ff205ee1461011857806333b5b62e14610136575b600080fd5b610102610293565b60405161010f91906112dc565b60405180910390f35b610120610299565b60405161012d91906110c5565b60405180910390f35b61013e6102bf565b60405161014b91906112dc565b60405180910390f35b61016e60048036038101906101699190610dc5565b6102c5565b005b6101786105a4565b60405161018591906111a1565b60405180910390f35b6101966105ca565b6040516101a391906112dc565b60405180910390f35b6101b46105d0565b005b6101be610833565b6040516101cb91906112dc565b60405180910390f35b6101dc610839565b6040516101e991906112dc565b60405180910390f35b61020c60048036038101906102079190610d9c565b61083f565b005b610216610952565b005b610232600480360381019061022d9190610d4a565b610a34565b60405161024496959493929190611140565b60405180910390f35b610255610a9d565b005b61025f610c89565b60405161026c91906112dc565b60405180910390f35b61027d610c8f565b60405161028a91906110c5565b60405180910390f35b60035481565b600a60009054906101000a900473ffffffffffffffffffffffffffffffffffffffff1681565b60065481565b60006002541180156102d8575060025442105b80156102e657506000600554115b610325576040517f08c379a000000000000000000000000000000000000000000000000000000000815260040161031c9061129c565b60405180910390fd5b600654831015801561033957506007548311155b610378576040517f08c379a000000000000000000000000000000000000000000000000000000000815260040161036f9061125c565b60405180910390fd5b600061038f60045485610cb590919063ffffffff16565b90506005548111156103d6576040517f08c379a00000000000000000000000000000000000000000000000000000000081526004016103cd906111bc565b60405180910390fd5b600960009054906101000a900473ffffffffffffffffffffffffffffffffffffffff1673ffffffffffffffffffffffffffffffffffffffff166323b872dd3330876040518463ffffffff1660e01b8152600401610435939291906110e0565b602060405180830381600087803b15801561044f57600080fd5b505af1158015610463573d6000803e3d6000fd5b505050506040513d601f19601f820116820180604052508101906104879190610d73565b506040518060c001604052803373ffffffffffffffffffffffffffffffffffffffff168152602001858152602001828152602001600015158152602001838152602001848152506000803373ffffffffffffffffffffffffffffffffffffffff1673ffffffffffffffffffffffffffffffffffffffff16815260200190815260200160002060008201518160000160006101000a81548173ffffffffffffffffffffffffffffffffffffffff021916908373ffffffffffffffffffffffffffffffffffffffff160217905550602082015181600101556040820151816002015560608201518160030160006101000a81548160ff0219169083151502179055506080820151816004015560a0820151816005015590505050505050565b600860009054906101000a900473ffffffffffffffffffffffffffffffffffffffff1681565b60055481565b60008060003373ffffffffffffffffffffffffffffffffffffffff1673ffffffffffffffffffffffffffffffffffffffff16815260200190815260200160002090504281600501541115610659576040517f08c379a00000000000000000000000000000000000000000000000000000000081526004016106509061123c565b60405180910390fd5b60008060003373ffffffffffffffffffffffffffffffffffffffff1673ffffffffffffffffffffffffffffffffffffffff168152602001908152602001600020905060008160010154116106e2576040517f08c379a00000000000000000000000000000000000000000000000000000000081526004016106d99061127c565b60405180910390fd5b600015158160030160009054906101000a900460ff1615151461073a576040517f08c379a0000000000000000000000000000000000000000000000000000000008152600401610731906112bc565b60405180910390fd5b60018160030160006101000a81548160ff021916908315150217905550600860009054906101000a900473ffffffffffffffffffffffffffffffffffffffff1673ffffffffffffffffffffffffffffffffffffffff1663a9059cbb8260000160009054906101000a900473ffffffffffffffffffffffffffffffffffffffff1683600201546040518363ffffffff1660e01b81526004016107dc929190611117565b602060405180830381600087803b1580156107f657600080fd5b505af115801561080a573d6000803e3d6000fd5b505050506040513d601f19601f8201168201806040525081019061082e9190610d73565b505050565b60075481565b60045481565b6000600254118015610852575060025442105b801561086057506000600554115b61089f576040517f08c379a00000000000000000000000000000000000000000000000000000000081526004016108969061129c565b60405180910390fd5b600960009054906101000a900473ffffffffffffffffffffffffffffffffffffffff1673ffffffffffffffffffffffffffffffffffffffff1663095ea7b330836040518363ffffffff1660e01b81526004016108fc929190611117565b602060405180830381600087803b15801561091657600080fd5b505af115801561092a573d6000803e3d6000fd5b505050506040513d601f19601f8201168201806040525081019061094e9190610d73565b5050565b600160009054906101000a900473ffffffffffffffffffffffffffffffffffffffff1673ffffffffffffffffffffffffffffffffffffffff163373ffffffffffffffffffffffffffffffffffffffff16146109e2576040517f08c379a00000000000000000000000000000000000000000000000000000000081526004016109d9906111dc565b60405180910390fd5b600060025414610a27576040517f08c379a0000000000000000000000000000000000000000000000000000000008152600401610a1e906111fc565b60405180910390fd5b6003544201600281905550565b60006020528060005260406000206000915090508060000160009054906101000a900473ffffffffffffffffffffffffffffffffffffffff16908060010154908060020154908060030160009054906101000a900460ff16908060040154908060050154905086565b60008060003373ffffffffffffffffffffffffffffffffffffffff1673ffffffffffffffffffffffffffffffffffffffff16815260200190815260200160002090504281600501541015610b26576040517f08c379a0000000000000000000000000000000000000000000000000000000008152600401610b1d9061123c565b60405180910390fd5b60008060003373ffffffffffffffffffffffffffffffffffffffff1673ffffffffffffffffffffffffffffffffffffffff16815260200190815260200160002090506000816001015411610baf576040517f08c379a0000000000000000000000000000000000000000000000000000000008152600401610ba69061127c565b60405180910390fd5b600960009054906101000a900473ffffffffffffffffffffffffffffffffffffffff1673ffffffffffffffffffffffffffffffffffffffff1663a9059cbb600160009054906101000a900473ffffffffffffffffffffffffffffffffffffffff1683600101546040518363ffffffff1660e01b8152600401610c32929190611117565b602060405180830381600087803b158015610c4c57600080fd5b505af1158015610c60573d6000803e3d6000fd5b505050506040513d601f19601f82011682018060405250810190610c849190610d73565b505050565b60025481565b600160009054906101000a900473ffffffffffffffffffffffffffffffffffffffff1681565b6000808211610cf9576040517f08c379a0000000000000000000000000000000000000000000000000000000008152600401610cf09061121c565b60405180910390fd5b818381610d0257fe5b04905092915050565b600081359050610d1a816113aa565b92915050565b600081519050610d2f816113c1565b92915050565b600081359050610d44816113d8565b92915050565b600060208284031215610d5c57600080fd5b6000610d6a84828501610d0b565b91505092915050565b600060208284031215610d8557600080fd5b6000610d9384828501610d20565b91505092915050565b600060208284031215610dae57600080fd5b6000610dbc84828501610d35565b91505092915050565b600080600060608486031215610dda57600080fd5b6000610de886828701610d35565b9350506020610df986828701610d35565b9250506040610e0a86828701610d35565b9150509250925092565b610e1d81611350565b82525050565b610e2c81611308565b82525050565b610e3b8161131a565b82525050565b610e4a81611362565b82525050565b6000610e5d6011836112f7565b91507f6e6f7420656e6f7567687420746f6b656e0000000000000000000000000000006000830152602082019050919050565b6000610e9d600a836112f7565b91507f6f6e6c792061646d696e000000000000000000000000000000000000000000006000830152602082019050919050565b6000610edd6018836112f7565b91507f69636f2073686f756c64206e6f742062652061637469766500000000000000006000830152602082019050919050565b6000610f1d601a836112f7565b91507f536166654d6174683a206469766973696f6e206279207a65726f0000000000006000830152602082019050919050565b6000610f5d600c836112f7565b91507f6f6e6c7920696e2074696d6500000000000000000000000000000000000000006000830152602082019050919050565b6000610f9d6031836112f7565b91507f20646169416d6f756e742073686f756c64206265206265747765656e206d696e60008301527f20616e64206d61782070757263686173650000000000000000000000000000006020830152604082019050919050565b6000611003600e836112f7565b91507f6f6e6c7920696e766572746f72730000000000000000000000000000000000006000830152602082019050919050565b60006110436012836112f7565b91507f69636f206d7573742062652061637469766500000000000000000000000000006000830152602082019050919050565b6000611083601c836112f7565b91507f746f6b656e73207765726520616c7265616479207769746864726177000000006000830152602082019050919050565b6110bf81611346565b82525050565b60006020820190506110da6000830184610e23565b92915050565b60006060820190506110f56000830186610e14565b6111026020830185610e23565b61110f60408301846110b6565b949350505050565b600060408201905061112c6000830185610e23565b61113960208301846110b6565b9392505050565b600060c0820190506111556000830189610e23565b61116260208301886110b6565b61116f60408301876110b6565b61117c6060830186610e32565b61118960808301856110b6565b61119660a08301846110b6565b979650505050505050565b60006020820190506111b66000830184610e41565b92915050565b600060208201905081810360008301526111d581610e50565b9050919050565b600060208201905081810360008301526111f581610e90565b9050919050565b6000602082019050818103600083015261121581610ed0565b9050919050565b6000602082019050818103600083015261123581610f10565b9050919050565b6000602082019050818103600083015261125581610f50565b9050919050565b6000602082019050818103600083015261127581610f90565b9050919050565b6000602082019050818103600083015261129581610ff6565b9050919050565b600060208201905081810360008301526112b581611036565b9050919050565b600060208201905081810360008301526112d581611076565b9050919050565b60006020820190506112f160008301846110b6565b92915050565b600082825260208201905092915050565b600061131382611326565b9050919050565b60008115159050919050565b600073ffffffffffffffffffffffffffffffffffffffff82169050919050565b6000819050919050565b600061135b82611386565b9050919050565b600061136d82611374565b9050919050565b600061137f82611326565b9050919050565b600061139182611398565b9050919050565b60006113a382611326565b9050919050565b6113b381611308565b81146113be57600080fd5b50565b6113ca8161131a565b81146113d557600080fd5b50565b6113e181611346565b81146113ec57600080fd5b5056fea2646970667358221220a669b1d40a704875c76fb9dc21719843f25b3795da7e3241a42a3cd3ea4b126964736f6c63430007000033",
  "immutableReferences": {},
  "source": "// SPDX-License-Identifier: MIT\npragma solidity 0.7.0;\npragma experimental ABIEncoderV2;\n\nimport './ERC20Token.sol';\nimport './Projects.sol';\n\n/**\n * @title Ico\n * @author : louis plessis\n * @notice Projet final\n * @dev \n */\n\n contract Ico {\n    using SafeMath for uint;\n\n    struct Sale{\n        address invertor;\n        uint daiLoan;\n        uint CFAmount;\n        bool tokensWithdrawn;\n        uint idProjet;\n        uint durationLoan;\n    }\n\n    mapping (address => Sale) public sales;\n    address public admin;\n    uint  public end;\n    uint  public duration;\n    uint  public price;\n    uint  public availableTokens;\n    uint  public minPurchase;\n    uint  public maxPurchase;\n    ERC20Token public CFtoken; // 0x85e591Ef83265680ce6F5D2916d115c458fbE2C4\n    \n    \n\n    IERC20 dai = IERC20(0x4F96Fe3b7A6Cf9725f59d353F723c1bDb64CA6Aa);\n    address public defiContract = 0x4F96Fe3b7A6Cf9725f59d353F723c1bDb64CA6Aa; //A mettre dans le constructor ==> deploy\n\n    constructor(address tokenAddress, uint _duration, uint _price, uint _availableTokens, uint _minPurchase, uint _maxPurchase) public {\n       CFtoken = ERC20Token(tokenAddress);\n        require(_duration > 0,'_duration shloud be > 0');\n        require(_availableTokens > 0 && _availableTokens <= CFtoken.maxTotalSupply(),'_availableTokens should be > 0 and <= maxTotalSupply');\n        require(_minPurchase > 0,'_minPurchase shloud be > 0');\n        require(_maxPurchase > 0 && _maxPurchase <= _availableTokens,'_maxPurchase should be > 0 and <= availableTokens');\n        \n       \n\n        admin = msg.sender;\n        duration = _duration;\n        price = _price;\n        availableTokens = _availableTokens;\n        minPurchase = _minPurchase;\n        maxPurchase = _maxPurchase;\n    }\n\n    modifier onlyAdmin(){\n        require(msg.sender == admin,'only admin');\n        _;\n    }\n    modifier icoActive(){\n        require(end > 0 && block.timestamp < end && availableTokens > 0,'ico must be active');\n        _;\n    }\n    modifier icoNotActive(){\n        require(end == 0,'ico should not be active');\n        _;\n    }\n    modifier loanEnded(){\n         Sale storage sale = sales[msg.sender];  \n        require(sale.durationLoan >= block.timestamp,'only in time');\n        _;\n    }\n    modifier loanActive(){\n         Sale storage sale = sales[msg.sender];  \n        require(sale.durationLoan <= block.timestamp,'only in time');\n        _;\n    }\n    function start() external onlyAdmin() icoNotActive(){\n        end = block.timestamp + duration;\n    }\n    \n    function approve(uint daiAmount) external icoActive(){\n        dai.approve(address(this), daiAmount);\n    \n    }\n\n    function buy(uint daiLoan, uint durationLoan, uint idProjet) external icoActive(){\n        require(daiLoan >= minPurchase && daiLoan <= maxPurchase,' daiAmount should be between min and max purchase');\n        uint tokenAmount = daiLoan.div(price);\n        require(tokenAmount <= availableTokens,'not enought token');\n        dai.transferFrom(msg.sender, address(this), daiLoan); //address(this)  remplacer par defiContract address\n        sales[msg.sender] = Sale(msg.sender,daiLoan,tokenAmount,false,idProjet,durationLoan);\n    }\n\n    function withdrawTokens() external loanActive(){\n        Sale storage sale = sales[msg.sender];  \n        require(sale.daiLoan > 0,'only invertors');\n        require(sale.tokensWithdrawn == false,'tokens were already withdraw');\n        sale.tokensWithdrawn = true;\n        CFtoken.transfer(sale.invertor,sale.CFAmount);\n    }\n\n    function withdrawDai() external loanEnded(){\n        Sale storage sale = sales[msg.sender];  \n        require(sale.daiLoan > 0,'only invertors');\n        dai.transfer(admin, sale.daiLoan ); //admin  remplacer par defiContract address\n\n    }\n   \n}\n",
  "sourcePath": "/Users/louisplessis/Documents/Alyra/ChainForest/contracts/Ico.sol",
  "compiler": {
    "name": "solc",
    "version": "0.7.0+commit.9e61f92b.Emscripten.clang"
  },
  "schemaVersion": "3.3.4",
  "updatedAt": "2021-04-13T15:11:02.004Z",
  "networkType": "ethereum",
  "devdoc": {
    "author": ": louis plessis",
    "kind": "dev",
    "methods": {},
    "title": "Ico",
    "version": 1
  },
  "userdoc": {
    "kind": "user",
    "methods": {},
    "notice": "Projet final",
    "version": 1
  }
}