{
  "contractName": "Ico",
  "abi": [
    {
      "inputs": [
        {
          "internalType": "address",
          "name": "tokenAddress",
          "type": "address"
        },
        {
          "internalType": "uint256",
          "name": "_duration",
          "type": "uint256"
        },
        {
          "internalType": "uint256",
          "name": "_price",
          "type": "uint256"
        },
        {
          "internalType": "uint256",
          "name": "_availableTokens",
          "type": "uint256"
        },
        {
          "internalType": "uint256",
          "name": "_minPurchase",
          "type": "uint256"
        },
        {
          "internalType": "uint256",
          "name": "_maxPurchase",
          "type": "uint256"
        }
      ],
      "stateMutability": "nonpayable",
      "type": "constructor"
    },
    {
      "inputs": [],
      "name": "CFtoken",
      "outputs": [
        {
          "internalType": "contract ERC20Token",
          "name": "",
          "type": "address"
        }
      ],
      "stateMutability": "view",
      "type": "function",
      "constant": true
    },
    {
      "inputs": [],
      "name": "admin",
      "outputs": [
        {
          "internalType": "address",
          "name": "",
          "type": "address"
        }
      ],
      "stateMutability": "view",
      "type": "function",
      "constant": true
    },
    {
      "inputs": [],
      "name": "availableTokens",
      "outputs": [
        {
          "internalType": "uint256",
          "name": "",
          "type": "uint256"
        }
      ],
      "stateMutability": "view",
      "type": "function",
      "constant": true
    },
    {
      "inputs": [],
      "name": "defiContract",
      "outputs": [
        {
          "internalType": "address",
          "name": "",
          "type": "address"
        }
      ],
      "stateMutability": "view",
      "type": "function",
      "constant": true
    },
    {
      "inputs": [],
      "name": "duration",
      "outputs": [
        {
          "internalType": "uint256",
          "name": "",
          "type": "uint256"
        }
      ],
      "stateMutability": "view",
      "type": "function",
      "constant": true
    },
    {
      "inputs": [],
      "name": "end",
      "outputs": [
        {
          "internalType": "uint256",
          "name": "",
          "type": "uint256"
        }
      ],
      "stateMutability": "view",
      "type": "function",
      "constant": true
    },
    {
      "inputs": [],
      "name": "maxPurchase",
      "outputs": [
        {
          "internalType": "uint256",
          "name": "",
          "type": "uint256"
        }
      ],
      "stateMutability": "view",
      "type": "function",
      "constant": true
    },
    {
      "inputs": [],
      "name": "minPurchase",
      "outputs": [
        {
          "internalType": "uint256",
          "name": "",
          "type": "uint256"
        }
      ],
      "stateMutability": "view",
      "type": "function",
      "constant": true
    },
    {
      "inputs": [],
      "name": "price",
      "outputs": [
        {
          "internalType": "uint256",
          "name": "",
          "type": "uint256"
        }
      ],
      "stateMutability": "view",
      "type": "function",
      "constant": true
    },
    {
      "inputs": [
        {
          "internalType": "address",
          "name": "",
          "type": "address"
        }
      ],
      "name": "sales",
      "outputs": [
        {
          "internalType": "address",
          "name": "invertor",
          "type": "address"
        },
        {
          "internalType": "uint256",
          "name": "daiLoan",
          "type": "uint256"
        },
        {
          "internalType": "uint256",
          "name": "CFAmount",
          "type": "uint256"
        },
        {
          "internalType": "bool",
          "name": "tokensWithdrawn",
          "type": "bool"
        },
        {
          "internalType": "uint256",
          "name": "idProjet",
          "type": "uint256"
        },
        {
          "internalType": "uint256",
          "name": "durationLoan",
          "type": "uint256"
        }
      ],
      "stateMutability": "view",
      "type": "function",
      "constant": true
    },
    {
      "inputs": [],
      "name": "workflowStatus",
      "outputs": [
        {
          "internalType": "enum Ico.WorkflowStatus",
          "name": "",
          "type": "uint8"
        }
      ],
      "stateMutability": "view",
      "type": "function",
      "constant": true
    },
    {
      "inputs": [],
      "name": "owner",
      "outputs": [
        {
          "internalType": "address",
          "name": "",
          "type": "address"
        }
      ],
      "stateMutability": "view",
      "type": "function",
      "constant": true
    },
    {
      "inputs": [],
      "name": "start",
      "outputs": [],
      "stateMutability": "nonpayable",
      "type": "function"
    },
    {
      "inputs": [
        {
          "internalType": "uint256",
          "name": "daiAmount",
          "type": "uint256"
        }
      ],
      "name": "approve",
      "outputs": [],
      "stateMutability": "nonpayable",
      "type": "function"
    },
    {
      "inputs": [],
      "name": "getWorkflowStatus",
      "outputs": [
        {
          "internalType": "enum Ico.WorkflowStatus",
          "name": "",
          "type": "uint8"
        }
      ],
      "stateMutability": "view",
      "type": "function",
      "constant": true
    },
    {
      "inputs": [
        {
          "internalType": "uint256",
          "name": "daiLoan",
          "type": "uint256"
        },
        {
          "internalType": "uint256",
          "name": "durationLoan",
          "type": "uint256"
        },
        {
          "internalType": "uint256",
          "name": "idProjet",
          "type": "uint256"
        }
      ],
      "name": "buy",
      "outputs": [],
      "stateMutability": "nonpayable",
      "type": "function"
    },
    {
      "inputs": [],
      "name": "withdrawTokens",
      "outputs": [],
      "stateMutability": "nonpayable",
      "type": "function"
    },
    {
      "inputs": [],
      "name": "withdrawDai",
      "outputs": [],
      "stateMutability": "nonpayable",
      "type": "function"
    }
  ],
  "bytecode": "0x6080604052734f96fe3b7a6cf9725f59d353f723c1bdb64ca6aa600a60006101000a81548173ffffffffffffffffffffffffffffffffffffffff021916908373ffffffffffffffffffffffffffffffffffffffff160217905550734f96fe3b7a6cf9725f59d353f723c1bdb64ca6aa600b60006101000a81548173ffffffffffffffffffffffffffffffffffffffff021916908373ffffffffffffffffffffffffffffffffffffffff160217905550348015620000bb57600080fd5b5060405162001c2738038062001c278339818101604052810190620000e19190620003fa565b33600260006101000a81548173ffffffffffffffffffffffffffffffffffffffff021916908373ffffffffffffffffffffffffffffffffffffffff16021790555060008060006101000a81548160ff021916908360028111156200014157fe5b021790555085600960006101000a81548173ffffffffffffffffffffffffffffffffffffffff021916908373ffffffffffffffffffffffffffffffffffffffff16021790555060008511620001cd576040517f08c379a0000000000000000000000000000000000000000000000000000000008152600401620001c49062000632565b60405180910390fd5b600083118015620002815750600960009054906101000a900473ffffffffffffffffffffffffffffffffffffffff1673ffffffffffffffffffffffffffffffffffffffff16632ab4d0526040518163ffffffff1660e01b815260040160206040518083038186803b1580156200024257600080fd5b505afa15801562000257573d6000803e3d6000fd5b505050506040513d601f19601f820116820180604052508101906200027d919062000490565b8311155b620002c3576040517f08c379a0000000000000000000000000000000000000000000000000000000008152600401620002ba9062000610565b60405180910390fd5b6000821162000309576040517f08c379a0000000000000000000000000000000000000000000000000000000008152600401620003009062000654565b60405180910390fd5b6000811180156200031a5750828111155b6200035c576040517f08c379a0000000000000000000000000000000000000000000000000000000008152600401620003539062000676565b60405180910390fd5b33600260006101000a81548173ffffffffffffffffffffffffffffffffffffffff021916908373ffffffffffffffffffffffffffffffffffffffff16021790555084600481905550836005819055508260068190555081600781905550806008819055505050505050506200071b565b600081519050620003dd81620006e7565b92915050565b600081519050620003f48162000701565b92915050565b60008060008060008060c087890312156200041457600080fd5b60006200042489828a01620003cc565b96505060206200043789828a01620003e3565b95505060406200044a89828a01620003e3565b94505060606200045d89828a01620003e3565b93505060806200047089828a01620003e3565b92505060a06200048389828a01620003e3565b9150509295509295509295565b600060208284031215620004a357600080fd5b6000620004b384828501620003e3565b91505092915050565b6000620004cb60348362000698565b91507f5f617661696c61626c65546f6b656e732073686f756c64206265203e2030206160008301527f6e64203c3d206d6178546f74616c537570706c790000000000000000000000006020830152604082019050919050565b60006200053360178362000698565b91507f5f6475726174696f6e2073686c6f7564206265203e20300000000000000000006000830152602082019050919050565b600062000575601a8362000698565b91507f5f6d696e50757263686173652073686c6f7564206265203e20300000000000006000830152602082019050919050565b6000620005b760318362000698565b91507f5f6d617850757263686173652073686f756c64206265203e203020616e64203c60008301527f3d20617661696c61626c65546f6b656e730000000000000000000000000000006020830152604082019050919050565b600060208201905081810360008301526200062b81620004bc565b9050919050565b600060208201905081810360008301526200064d8162000524565b9050919050565b600060208201905081810360008301526200066f8162000566565b9050919050565b600060208201905081810360008301526200069181620005a8565b9050919050565b600082825260208201905092915050565b6000620006b682620006bd565b9050919050565b600073ffffffffffffffffffffffffffffffffffffffff82169050919050565b6000819050919050565b620006f281620006a9565b8114620006fe57600080fd5b50565b6200070c81620006dd565b81146200071857600080fd5b50565b6114fc806200072b6000396000f3fe608060405234801561001057600080fd5b50600436106101165760003560e01c8063a035b1fe116100a2578063c6b9f06a11610071578063c6b9f06a14610275578063e4b6f799146102aa578063efbe1c1c146102b4578063f75d64a6146102d2578063f851a440146102f057610116565b8063a035b1fe14610213578063a1edffa214610231578063b759f9541461024f578063be9a65551461026b57610116565b8063569b8e57116100e9578063569b8e571461019157806369bb4dc2146101af5780638d8f2adb146101cd5780638da5cb5b146101d7578063977b055b146101f557610116565b80630fb5a6b41461011b5780632ff205ee1461013957806333b5b62e1461015757806340993b2614610175575b600080fd5b61012361030e565b6040516101309190611381565b60405180910390f35b610141610314565b60405161014e919061114f565b60405180910390f35b61015f61033a565b60405161016c9190611381565b60405180910390f35b61018f600480360381019061018a9190610e40565b610340565b005b610199610626565b6040516101a6919061122b565b60405180910390f35b6101b761064c565b6040516101c49190611381565b60405180910390f35b6101d5610652565b005b6101df61082c565b6040516101ec919061114f565b60405180910390f35b6101fd610856565b60405161020a9190611381565b60405180910390f35b61021b61085c565b6040516102289190611381565b60405180910390f35b610239610862565b6040516102469190611246565b60405180910390f35b61026960048036038101906102649190610e17565b610873565b005b61027361098c565b005b61028f600480360381019061028a9190610dc5565b610a91565b6040516102a1969594939291906111ca565b60405180910390f35b6102b2610afa565b005b6102bc610cee565b6040516102c99190611381565b60405180910390f35b6102da610cf4565b6040516102e79190611246565b60405180910390f35b6102f8610d0a565b604051610305919061114f565b60405180910390f35b60045481565b600b60009054906101000a900473ffffffffffffffffffffffffffffffffffffffff1681565b60075481565b6000600354118015610353575060035442105b801561036157506000600654115b6103a0576040517f08c379a000000000000000000000000000000000000000000000000000000000815260040161039790611341565b60405180910390fd5b6000600a60009054906101000a900473ffffffffffffffffffffffffffffffffffffffff16905060075484101580156103db57506008548411155b61041a576040517f08c379a000000000000000000000000000000000000000000000000000000000815260040161041190611301565b60405180910390fd5b600061043160055486610d3090919063ffffffff16565b9050600654811115610478576040517f08c379a000000000000000000000000000000000000000000000000000000000815260040161046f90611261565b60405180910390fd5b8173ffffffffffffffffffffffffffffffffffffffff166323b872dd3330886040518463ffffffff1660e01b81526004016104b59392919061116a565b602060405180830381600087803b1580156104cf57600080fd5b505af11580156104e3573d6000803e3d6000fd5b505050506040513d601f19601f820116820180604052508101906105079190610dee565b506040518060c001604052803373ffffffffffffffffffffffffffffffffffffffff16815260200186815260200182815260200160001515815260200184815260200185815250600160003373ffffffffffffffffffffffffffffffffffffffff1673ffffffffffffffffffffffffffffffffffffffff16815260200190815260200160002060008201518160000160006101000a81548173ffffffffffffffffffffffffffffffffffffffff021916908373ffffffffffffffffffffffffffffffffffffffff160217905550602082015181600101556040820151816002015560608201518160030160006101000a81548160ff0219169083151502179055506080820151816004015560a082015181600501559050505050505050565b600960009054906101000a900473ffffffffffffffffffffffffffffffffffffffff1681565b60065481565b6000600160003373ffffffffffffffffffffffffffffffffffffffff1673ffffffffffffffffffffffffffffffffffffffff168152602001908152602001600020905060008160010154116106dc576040517f08c379a00000000000000000000000000000000000000000000000000000000081526004016106d390611321565b60405180910390fd5b600015158160030160009054906101000a900460ff16151514610734576040517f08c379a000000000000000000000000000000000000000000000000000000000815260040161072b90611361565b60405180910390fd5b60018160030160006101000a81548160ff021916908315150217905550600960009054906101000a900473ffffffffffffffffffffffffffffffffffffffff1673ffffffffffffffffffffffffffffffffffffffff1663a9059cbb8260000160009054906101000a900473ffffffffffffffffffffffffffffffffffffffff1683600201546040518363ffffffff1660e01b81526004016107d69291906111a1565b602060405180830381600087803b1580156107f057600080fd5b505af1158015610804573d6000803e3d6000fd5b505050506040513d601f19601f820116820180604052508101906108289190610dee565b5050565b6000600260009054906101000a900473ffffffffffffffffffffffffffffffffffffffff16905090565b60085481565b60055481565b60008054906101000a900460ff1681565b6000600354118015610886575060035442105b801561089457506000600654115b6108d3576040517f08c379a00000000000000000000000000000000000000000000000000000000081526004016108ca90611341565b60405180910390fd5b6000600a60009054906101000a900473ffffffffffffffffffffffffffffffffffffffff1690508073ffffffffffffffffffffffffffffffffffffffff1663095ea7b330846040518363ffffffff1660e01b81526004016109359291906111a1565b602060405180830381600087803b15801561094f57600080fd5b505af1158015610963573d6000803e3d6000fd5b505050506040513d601f19601f820116820180604052508101906109879190610dee565b505050565b600260009054906101000a900473ffffffffffffffffffffffffffffffffffffffff1673ffffffffffffffffffffffffffffffffffffffff163373ffffffffffffffffffffffffffffffffffffffff1614610a1c576040517f08c379a0000000000000000000000000000000000000000000000000000000008152600401610a1390611281565b60405180910390fd5b600060035414610a61576040517f08c379a0000000000000000000000000000000000000000000000000000000008152600401610a58906112a1565b60405180910390fd5b600454420160038190555060016000806101000a81548160ff02191690836002811115610a8a57fe5b0217905550565b60016020528060005260406000206000915090508060000160009054906101000a900473ffffffffffffffffffffffffffffffffffffffff16908060010154908060020154908060030160009054906101000a900460ff16908060040154908060050154905086565b6000600160003373ffffffffffffffffffffffffffffffffffffffff1673ffffffffffffffffffffffffffffffffffffffff16815260200190815260200160002090504281600501541015610b84576040517f08c379a0000000000000000000000000000000000000000000000000000000008152600401610b7b906112e1565b60405180910390fd5b6000600a60009054906101000a900473ffffffffffffffffffffffffffffffffffffffff1690506000600160003373ffffffffffffffffffffffffffffffffffffffff1673ffffffffffffffffffffffffffffffffffffffff16815260200190815260200160002090506000816001015411610c35576040517f08c379a0000000000000000000000000000000000000000000000000000000008152600401610c2c90611321565b60405180910390fd5b8173ffffffffffffffffffffffffffffffffffffffff1663a9059cbb600260009054906101000a900473ffffffffffffffffffffffffffffffffffffffff1683600101546040518363ffffffff1660e01b8152600401610c969291906111a1565b602060405180830381600087803b158015610cb057600080fd5b505af1158015610cc4573d6000803e3d6000fd5b505050506040513d601f19601f82011682018060405250810190610ce89190610dee565b50505050565b60035481565b60008060009054906101000a900460ff16905090565b600260009054906101000a900473ffffffffffffffffffffffffffffffffffffffff1681565b6000808211610d74576040517f08c379a0000000000000000000000000000000000000000000000000000000008152600401610d6b906112c1565b60405180910390fd5b818381610d7d57fe5b04905092915050565b600081359050610d9581611481565b92915050565b600081519050610daa81611498565b92915050565b600081359050610dbf816114af565b92915050565b600060208284031215610dd757600080fd5b6000610de584828501610d86565b91505092915050565b600060208284031215610e0057600080fd5b6000610e0e84828501610d9b565b91505092915050565b600060208284031215610e2957600080fd5b6000610e3784828501610db0565b91505092915050565b600080600060608486031215610e5557600080fd5b6000610e6386828701610db0565b9350506020610e7486828701610db0565b9250506040610e8586828701610db0565b9150509250925092565b610e9881611408565b82525050565b610ea7816113ad565b82525050565b610eb6816113bf565b82525050565b610ec58161141a565b82525050565b610ed48161143e565b82525050565b6000610ee760118361139c565b91507f6e6f7420656e6f7567687420746f6b656e0000000000000000000000000000006000830152602082019050919050565b6000610f27600a8361139c565b91507f6f6e6c792061646d696e000000000000000000000000000000000000000000006000830152602082019050919050565b6000610f6760188361139c565b91507f69636f2073686f756c64206e6f742062652061637469766500000000000000006000830152602082019050919050565b6000610fa7601a8361139c565b91507f536166654d6174683a206469766973696f6e206279207a65726f0000000000006000830152602082019050919050565b6000610fe7600c8361139c565b91507f6f6e6c7920696e2074696d6500000000000000000000000000000000000000006000830152602082019050919050565b600061102760318361139c565b91507f20646169416d6f756e742073686f756c64206265206265747765656e206d696e60008301527f20616e64206d61782070757263686173650000000000000000000000000000006020830152604082019050919050565b600061108d600e8361139c565b91507f6f6e6c7920696e766572746f72730000000000000000000000000000000000006000830152602082019050919050565b60006110cd60128361139c565b91507f69636f206d7573742062652061637469766500000000000000000000000000006000830152602082019050919050565b600061110d601c8361139c565b91507f746f6b656e73207765726520616c7265616479207769746864726177000000006000830152602082019050919050565b611149816113fe565b82525050565b60006020820190506111646000830184610e9e565b92915050565b600060608201905061117f6000830186610e8f565b61118c6020830185610e9e565b6111996040830184611140565b949350505050565b60006040820190506111b66000830185610e9e565b6111c36020830184611140565b9392505050565b600060c0820190506111df6000830189610e9e565b6111ec6020830188611140565b6111f96040830187611140565b6112066060830186610ead565b6112136080830185611140565b61122060a0830184611140565b979650505050505050565b60006020820190506112406000830184610ebc565b92915050565b600060208201905061125b6000830184610ecb565b92915050565b6000602082019050818103600083015261127a81610eda565b9050919050565b6000602082019050818103600083015261129a81610f1a565b9050919050565b600060208201905081810360008301526112ba81610f5a565b9050919050565b600060208201905081810360008301526112da81610f9a565b9050919050565b600060208201905081810360008301526112fa81610fda565b9050919050565b6000602082019050818103600083015261131a8161101a565b9050919050565b6000602082019050818103600083015261133a81611080565b9050919050565b6000602082019050818103600083015261135a816110c0565b9050919050565b6000602082019050818103600083015261137a81611100565b9050919050565b60006020820190506113966000830184611140565b92915050565b600082825260208201905092915050565b60006113b8826113de565b9050919050565b60008115159050919050565b60008190506113d982611474565b919050565b600073ffffffffffffffffffffffffffffffffffffffff82169050919050565b6000819050919050565b600061141382611450565b9050919050565b60006114258261142c565b9050919050565b6000611437826113de565b9050919050565b6000611449826113cb565b9050919050565b600061145b82611462565b9050919050565b600061146d826113de565b9050919050565b6003811061147e57fe5b50565b61148a816113ad565b811461149557600080fd5b50565b6114a1816113bf565b81146114ac57600080fd5b50565b6114b8816113fe565b81146114c357600080fd5b5056fea2646970667358221220a1bd0a9bda336ad4224ca8d4293e612ad82dd6eb559a7a688581a4537e765b0164736f6c63430007000033",
  "immutableReferences": {},
  "source": "// SPDX-License-Identifier: MIT\npragma solidity 0.7.0;\npragma experimental ABIEncoderV2;\n\nimport './ERC20Token.sol';\nimport './Projects.sol';\n\n/**\n * @title Ico\n * @author : louis plessis\n * @notice Projet final\n * @dev \n */\n\n contract Ico {\n    using SafeMath for uint;\n\n    enum WorkflowStatus {\n        notStartedYet, // 0\n        started, // 1\n        ended // 2\n   \n    }\n       // status du contrat\n    WorkflowStatus public workflowStatus;\n\n    struct Sale{\n        address invertor;\n        uint daiLoan;\n        uint CFAmount;\n        bool tokensWithdrawn;\n        uint idProjet;\n        uint durationLoan;\n    }\n\n    mapping (address => Sale) public sales;\n    address public admin;\n    uint  public end;\n    uint  public duration;\n    uint  public price;\n    uint  public availableTokens;\n    uint  public minPurchase;\n    uint  public maxPurchase;\n    ERC20Token public CFtoken; // 0x85e591Ef83265680ce6F5D2916d115c458fbE2C4\n    \n     address daiTokenAddress = 0x4F96Fe3b7A6Cf9725f59d353F723c1bDb64CA6Aa;\n\n\n    //IERC20 dai = IERC20(0x4F96Fe3b7A6Cf9725f59d353F723c1bDb64CA6Aa);\n    address public defiContract = 0x4F96Fe3b7A6Cf9725f59d353F723c1bDb64CA6Aa; //A mettre dans le constructor ==> deploy\n\n    constructor(address tokenAddress, uint _duration, uint _price, uint _availableTokens, uint _minPurchase, uint _maxPurchase) public {\n         admin = msg.sender;\n         workflowStatus = WorkflowStatus.notStartedYet;\n       CFtoken = ERC20Token(tokenAddress);\n        require(_duration > 0,'_duration shloud be > 0');\n        require(_availableTokens > 0 && _availableTokens <= CFtoken.maxTotalSupply(),'_availableTokens should be > 0 and <= maxTotalSupply');\n        require(_minPurchase > 0,'_minPurchase shloud be > 0');\n        require(_maxPurchase > 0 && _maxPurchase <= _availableTokens,'_maxPurchase should be > 0 and <= availableTokens');\n        \n       \n\n        admin = msg.sender;\n        duration = _duration;\n        price = _price;\n        availableTokens = _availableTokens;\n        minPurchase = _minPurchase;\n        maxPurchase = _maxPurchase;\n    }\n    function owner() external view returns(address) {\n        return admin;\n    }\n\n    modifier onlyAdmin(){\n        require(msg.sender == admin,'only admin');\n        _;\n    }\n    modifier icoActive(){\n        require(end > 0 && block.timestamp < end && availableTokens > 0,'ico must be active');\n        _;\n    }\n    modifier icoNotActive(){\n        require(end == 0,'ico should not be active');\n        _;\n    }\n    modifier loanEnded(){\n         Sale storage sale = sales[msg.sender];  \n        require(sale.durationLoan >= block.timestamp,'only in time');\n        _;\n    }\n    modifier loanActive(){\n         Sale storage sale = sales[msg.sender];  \n        require(sale.durationLoan <= block.timestamp,'only in time');\n        _;\n    }\n    function start() external onlyAdmin() icoNotActive(){\n        end = block.timestamp + duration;\n        workflowStatus = WorkflowStatus.started;\n\n    }\n    \n    function approve(uint daiAmount) public icoActive(){\n         IERC20 daiInstance = IERC20(daiTokenAddress);\n        daiInstance.approve(address(this), daiAmount);\n\n    }\n    function getWorkflowStatus() external view returns (WorkflowStatus) {\n         return workflowStatus;       \n     }\n\n    function buy(uint daiLoan, uint durationLoan, uint idProjet) external icoActive(){\n        IERC20 daiInstance = IERC20(daiTokenAddress);\n\n        require(daiLoan >= minPurchase && daiLoan <= maxPurchase,' daiAmount should be between min and max purchase');\n        uint tokenAmount = daiLoan.div(price);\n        require(tokenAmount <= availableTokens,'not enought token');\n        daiInstance.transferFrom(msg.sender, address(this), daiLoan); //address(this)  remplacer par defiContract address\n        sales[msg.sender] = Sale(msg.sender,daiLoan,tokenAmount,false,idProjet,durationLoan);\n    }\n\n    function withdrawTokens() external {\n        Sale storage sale = sales[msg.sender];  \n        require(sale.daiLoan > 0,'only invertors');\n        require(sale.tokensWithdrawn == false,'tokens were already withdraw');\n        sale.tokensWithdrawn = true;\n        CFtoken.transfer(sale.invertor,sale.CFAmount);\n    }\n\n    function withdrawDai() external loanEnded(){\n        IERC20 daiInstance = IERC20(daiTokenAddress);\n\n        Sale storage sale = sales[msg.sender];  \n        require(sale.daiLoan > 0,'only invertors');\n        daiInstance.transfer(admin, sale.daiLoan ); //admin  remplacer par defiContract address\n\n    }\n   \n}\n\n\n\n\n\n",
  "sourcePath": "/Users/louisplessis/Documents/Alyra/ChainForest/contracts/Ico.sol",
  "compiler": {
    "name": "solc",
    "version": "0.7.0+commit.9e61f92b.Emscripten.clang"
  },
  "schemaVersion": "3.3.4",
  "updatedAt": "2021-04-15T12:08:30.335Z",
  "networkType": "ethereum",
  "devdoc": {
    "author": ": louis plessis",
    "kind": "dev",
    "methods": {},
    "title": "Ico",
    "version": 1
  },
  "userdoc": {
    "kind": "user",
    "methods": {},
    "notice": "Projet final",
    "version": 1
  }
}