{
  "contractName": "Ico",
  "abi": [
    {
      "inputs": [
        {
          "internalType": "address",
          "name": "tokenAddress",
          "type": "address"
        },
        {
          "internalType": "uint256",
          "name": "_duration",
          "type": "uint256"
        },
        {
          "internalType": "uint256",
          "name": "_price",
          "type": "uint256"
        },
        {
          "internalType": "uint256",
          "name": "_availableTokens",
          "type": "uint256"
        },
        {
          "internalType": "uint256",
          "name": "_minPurchase",
          "type": "uint256"
        },
        {
          "internalType": "uint256",
          "name": "_maxPurchase",
          "type": "uint256"
        }
      ],
      "stateMutability": "nonpayable",
      "type": "constructor"
    },
    {
      "inputs": [],
      "name": "CFtoken",
      "outputs": [
        {
          "internalType": "contract ERC20Token",
          "name": "",
          "type": "address"
        }
      ],
      "stateMutability": "view",
      "type": "function",
      "constant": true
    },
    {
      "inputs": [],
      "name": "admin",
      "outputs": [
        {
          "internalType": "address",
          "name": "",
          "type": "address"
        }
      ],
      "stateMutability": "view",
      "type": "function",
      "constant": true
    },
    {
      "inputs": [],
      "name": "availableTokens",
      "outputs": [
        {
          "internalType": "uint256",
          "name": "",
          "type": "uint256"
        }
      ],
      "stateMutability": "view",
      "type": "function",
      "constant": true
    },
    {
      "inputs": [],
      "name": "defiContract",
      "outputs": [
        {
          "internalType": "address",
          "name": "",
          "type": "address"
        }
      ],
      "stateMutability": "view",
      "type": "function",
      "constant": true
    },
    {
      "inputs": [],
      "name": "duration",
      "outputs": [
        {
          "internalType": "uint256",
          "name": "",
          "type": "uint256"
        }
      ],
      "stateMutability": "view",
      "type": "function",
      "constant": true
    },
    {
      "inputs": [],
      "name": "end",
      "outputs": [
        {
          "internalType": "uint256",
          "name": "",
          "type": "uint256"
        }
      ],
      "stateMutability": "view",
      "type": "function",
      "constant": true
    },
    {
      "inputs": [],
      "name": "maxPurchase",
      "outputs": [
        {
          "internalType": "uint256",
          "name": "",
          "type": "uint256"
        }
      ],
      "stateMutability": "view",
      "type": "function",
      "constant": true
    },
    {
      "inputs": [],
      "name": "minPurchase",
      "outputs": [
        {
          "internalType": "uint256",
          "name": "",
          "type": "uint256"
        }
      ],
      "stateMutability": "view",
      "type": "function",
      "constant": true
    },
    {
      "inputs": [],
      "name": "price",
      "outputs": [
        {
          "internalType": "uint256",
          "name": "",
          "type": "uint256"
        }
      ],
      "stateMutability": "view",
      "type": "function",
      "constant": true
    },
    {
      "inputs": [
        {
          "internalType": "address",
          "name": "",
          "type": "address"
        }
      ],
      "name": "sales",
      "outputs": [
        {
          "internalType": "address",
          "name": "invertor",
          "type": "address"
        },
        {
          "internalType": "uint256",
          "name": "daiLoan",
          "type": "uint256"
        },
        {
          "internalType": "uint256",
          "name": "CFAmount",
          "type": "uint256"
        },
        {
          "internalType": "bool",
          "name": "tokensWithdrawn",
          "type": "bool"
        },
        {
          "internalType": "uint256",
          "name": "idProjet",
          "type": "uint256"
        },
        {
          "internalType": "uint256",
          "name": "durationLoan",
          "type": "uint256"
        }
      ],
      "stateMutability": "view",
      "type": "function",
      "constant": true
    },
    {
      "inputs": [],
      "name": "start",
      "outputs": [],
      "stateMutability": "nonpayable",
      "type": "function"
    },
    {
      "inputs": [
        {
          "internalType": "uint256",
          "name": "daiAmount",
          "type": "uint256"
        }
      ],
      "name": "approve",
      "outputs": [],
      "stateMutability": "nonpayable",
      "type": "function"
    },
    {
      "inputs": [
        {
          "internalType": "uint256",
          "name": "daiLoan",
          "type": "uint256"
        },
        {
          "internalType": "uint256",
          "name": "durationLoan",
          "type": "uint256"
        },
        {
          "internalType": "uint256",
          "name": "idProjet",
          "type": "uint256"
        }
      ],
      "name": "buy",
      "outputs": [],
      "stateMutability": "nonpayable",
      "type": "function"
    },
    {
      "inputs": [],
      "name": "withdrawTokens",
      "outputs": [],
      "stateMutability": "nonpayable",
      "type": "function"
    },
    {
      "inputs": [],
      "name": "withdrawDai",
      "outputs": [],
      "stateMutability": "nonpayable",
      "type": "function"
    }
  ],
  "bytecode": "0x6080604052734f96fe3b7a6cf9725f59d353f723c1bdb64ca6aa600960006101000a81548173ffffffffffffffffffffffffffffffffffffffff021916908373ffffffffffffffffffffffffffffffffffffffff160217905550734f96fe3b7a6cf9725f59d353f723c1bdb64ca6aa600a60006101000a81548173ffffffffffffffffffffffffffffffffffffffff021916908373ffffffffffffffffffffffffffffffffffffffff160217905550348015620000bb57600080fd5b5060405162001a7338038062001a738339818101604052810190620000e1919062000395565b85600860006101000a81548173ffffffffffffffffffffffffffffffffffffffff021916908373ffffffffffffffffffffffffffffffffffffffff1602179055506000851162000168576040517f08c379a00000000000000000000000000000000000000000000000000000000081526004016200015f90620005cd565b60405180910390fd5b6000831180156200021c5750600860009054906101000a900473ffffffffffffffffffffffffffffffffffffffff1673ffffffffffffffffffffffffffffffffffffffff16632ab4d0526040518163ffffffff1660e01b815260040160206040518083038186803b158015620001dd57600080fd5b505afa158015620001f2573d6000803e3d6000fd5b505050506040513d601f19601f820116820180604052508101906200021891906200042b565b8311155b6200025e576040517f08c379a00000000000000000000000000000000000000000000000000000000081526004016200025590620005ab565b60405180910390fd5b60008211620002a4576040517f08c379a00000000000000000000000000000000000000000000000000000000081526004016200029b90620005ef565b60405180910390fd5b600081118015620002b55750828111155b620002f7576040517f08c379a0000000000000000000000000000000000000000000000000000000008152600401620002ee9062000611565b60405180910390fd5b33600160006101000a81548173ffffffffffffffffffffffffffffffffffffffff021916908373ffffffffffffffffffffffffffffffffffffffff1602179055508460038190555083600481905550826005819055508160068190555080600781905550505050505050620006b6565b600081519050620003788162000682565b92915050565b6000815190506200038f816200069c565b92915050565b60008060008060008060c08789031215620003af57600080fd5b6000620003bf89828a0162000367565b9650506020620003d289828a016200037e565b9550506040620003e589828a016200037e565b9450506060620003f889828a016200037e565b93505060806200040b89828a016200037e565b92505060a06200041e89828a016200037e565b9150509295509295509295565b6000602082840312156200043e57600080fd5b60006200044e848285016200037e565b91505092915050565b60006200046660348362000633565b91507f5f617661696c61626c65546f6b656e732073686f756c64206265203e2030206160008301527f6e64203c3d206d6178546f74616c537570706c790000000000000000000000006020830152604082019050919050565b6000620004ce60178362000633565b91507f5f6475726174696f6e2073686c6f7564206265203e20300000000000000000006000830152602082019050919050565b600062000510601a8362000633565b91507f5f6d696e50757263686173652073686c6f7564206265203e20300000000000006000830152602082019050919050565b60006200055260318362000633565b91507f5f6d617850757263686173652073686f756c64206265203e203020616e64203c60008301527f3d20617661696c61626c65546f6b656e730000000000000000000000000000006020830152604082019050919050565b60006020820190508181036000830152620005c68162000457565b9050919050565b60006020820190508181036000830152620005e881620004bf565b9050919050565b600060208201905081810360008301526200060a8162000501565b9050919050565b600060208201905081810360008301526200062c8162000543565b9050919050565b600082825260208201905092915050565b6000620006518262000658565b9050919050565b600073ffffffffffffffffffffffffffffffffffffffff82169050919050565b6000819050919050565b6200068d8162000644565b81146200069957600080fd5b50565b620006a78162000678565b8114620006b357600080fd5b50565b6113ad80620006c66000396000f3fe608060405234801561001057600080fd5b50600436106100f55760003560e01c8063977b055b11610097578063c6b9f06a11610066578063c6b9f06a14610218578063e4b6f7991461024d578063efbe1c1c14610257578063f851a44014610275576100f5565b8063977b055b146101b6578063a035b1fe146101d4578063b759f954146101f2578063be9a65551461020e576100f5565b806340993b26116100d357806340993b2614610154578063569b8e571461017057806369bb4dc21461018e5780638d8f2adb146101ac576100f5565b80630fb5a6b4146100fa5780632ff205ee1461011857806333b5b62e14610136575b600080fd5b610102610293565b60405161010f9190611264565b60405180910390f35b610120610299565b60405161012d919061104d565b60405180910390f35b61013e6102bf565b60405161014b9190611264565b60405180910390f35b61016e60048036038101906101699190610d4d565b6102c5565b005b6101786105aa565b6040516101859190611129565b60405180910390f35b6101966105d0565b6040516101a39190611264565b60405180910390f35b6101b46105d6565b005b6101be6107af565b6040516101cb9190611264565b60405180910390f35b6101dc6107b5565b6040516101e99190611264565b60405180910390f35b61020c60048036038101906102079190610d24565b6107bb565b005b6102166108d4565b005b610232600480360381019061022d9190610cd2565b6109b6565b604051610244969594939291906110c8565b60405180910390f35b610255610a1f565b005b61025f610c11565b60405161026c9190611264565b60405180910390f35b61027d610c17565b60405161028a919061104d565b60405180910390f35b60035481565b600a60009054906101000a900473ffffffffffffffffffffffffffffffffffffffff1681565b60065481565b60006002541180156102d8575060025442105b80156102e657506000600554115b610325576040517f08c379a000000000000000000000000000000000000000000000000000000000815260040161031c90611224565b60405180910390fd5b6000600960009054906101000a900473ffffffffffffffffffffffffffffffffffffffff169050600654841015801561036057506007548411155b61039f576040517f08c379a0000000000000000000000000000000000000000000000000000000008152600401610396906111e4565b60405180910390fd5b60006103b660045486610c3d90919063ffffffff16565b90506005548111156103fd576040517f08c379a00000000000000000000000000000000000000000000000000000000081526004016103f490611144565b60405180910390fd5b8173ffffffffffffffffffffffffffffffffffffffff166323b872dd3330886040518463ffffffff1660e01b815260040161043a93929190611068565b602060405180830381600087803b15801561045457600080fd5b505af1158015610468573d6000803e3d6000fd5b505050506040513d601f19601f8201168201806040525081019061048c9190610cfb565b506040518060c001604052803373ffffffffffffffffffffffffffffffffffffffff168152602001868152602001828152602001600015158152602001848152602001858152506000803373ffffffffffffffffffffffffffffffffffffffff1673ffffffffffffffffffffffffffffffffffffffff16815260200190815260200160002060008201518160000160006101000a81548173ffffffffffffffffffffffffffffffffffffffff021916908373ffffffffffffffffffffffffffffffffffffffff160217905550602082015181600101556040820151816002015560608201518160030160006101000a81548160ff0219169083151502179055506080820151816004015560a082015181600501559050505050505050565b600860009054906101000a900473ffffffffffffffffffffffffffffffffffffffff1681565b60055481565b60008060003373ffffffffffffffffffffffffffffffffffffffff1673ffffffffffffffffffffffffffffffffffffffff1681526020019081526020016000209050600081600101541161065f576040517f08c379a000000000000000000000000000000000000000000000000000000000815260040161065690611204565b60405180910390fd5b600015158160030160009054906101000a900460ff161515146106b7576040517f08c379a00000000000000000000000000000000000000000000000000000000081526004016106ae90611244565b60405180910390fd5b60018160030160006101000a81548160ff021916908315150217905550600860009054906101000a900473ffffffffffffffffffffffffffffffffffffffff1673ffffffffffffffffffffffffffffffffffffffff1663a9059cbb8260000160009054906101000a900473ffffffffffffffffffffffffffffffffffffffff1683600201546040518363ffffffff1660e01b815260040161075992919061109f565b602060405180830381600087803b15801561077357600080fd5b505af1158015610787573d6000803e3d6000fd5b505050506040513d601f19601f820116820180604052508101906107ab9190610cfb565b5050565b60075481565b60045481565b60006002541180156107ce575060025442105b80156107dc57506000600554115b61081b576040517f08c379a000000000000000000000000000000000000000000000000000000000815260040161081290611224565b60405180910390fd5b6000600960009054906101000a900473ffffffffffffffffffffffffffffffffffffffff1690508073ffffffffffffffffffffffffffffffffffffffff1663095ea7b330846040518363ffffffff1660e01b815260040161087d92919061109f565b602060405180830381600087803b15801561089757600080fd5b505af11580156108ab573d6000803e3d6000fd5b505050506040513d601f19601f820116820180604052508101906108cf9190610cfb565b505050565b600160009054906101000a900473ffffffffffffffffffffffffffffffffffffffff1673ffffffffffffffffffffffffffffffffffffffff163373ffffffffffffffffffffffffffffffffffffffff1614610964576040517f08c379a000000000000000000000000000000000000000000000000000000000815260040161095b90611164565b60405180910390fd5b6000600254146109a9576040517f08c379a00000000000000000000000000000000000000000000000000000000081526004016109a090611184565b60405180910390fd5b6003544201600281905550565b60006020528060005260406000206000915090508060000160009054906101000a900473ffffffffffffffffffffffffffffffffffffffff16908060010154908060020154908060030160009054906101000a900460ff16908060040154908060050154905086565b60008060003373ffffffffffffffffffffffffffffffffffffffff1673ffffffffffffffffffffffffffffffffffffffff16815260200190815260200160002090504281600501541015610aa8576040517f08c379a0000000000000000000000000000000000000000000000000000000008152600401610a9f906111c4565b60405180910390fd5b6000600960009054906101000a900473ffffffffffffffffffffffffffffffffffffffff16905060008060003373ffffffffffffffffffffffffffffffffffffffff1673ffffffffffffffffffffffffffffffffffffffff16815260200190815260200160002090506000816001015411610b58576040517f08c379a0000000000000000000000000000000000000000000000000000000008152600401610b4f90611204565b60405180910390fd5b8173ffffffffffffffffffffffffffffffffffffffff1663a9059cbb600160009054906101000a900473ffffffffffffffffffffffffffffffffffffffff1683600101546040518363ffffffff1660e01b8152600401610bb992919061109f565b602060405180830381600087803b158015610bd357600080fd5b505af1158015610be7573d6000803e3d6000fd5b505050506040513d601f19601f82011682018060405250810190610c0b9190610cfb565b50505050565b60025481565b600160009054906101000a900473ffffffffffffffffffffffffffffffffffffffff1681565b6000808211610c81576040517f08c379a0000000000000000000000000000000000000000000000000000000008152600401610c78906111a4565b60405180910390fd5b818381610c8a57fe5b04905092915050565b600081359050610ca281611332565b92915050565b600081519050610cb781611349565b92915050565b600081359050610ccc81611360565b92915050565b600060208284031215610ce457600080fd5b6000610cf284828501610c93565b91505092915050565b600060208284031215610d0d57600080fd5b6000610d1b84828501610ca8565b91505092915050565b600060208284031215610d3657600080fd5b6000610d4484828501610cbd565b91505092915050565b600080600060608486031215610d6257600080fd5b6000610d7086828701610cbd565b9350506020610d8186828701610cbd565b9250506040610d9286828701610cbd565b9150509250925092565b610da5816112d8565b82525050565b610db481611290565b82525050565b610dc3816112a2565b82525050565b610dd2816112ea565b82525050565b6000610de560118361127f565b91507f6e6f7420656e6f7567687420746f6b656e0000000000000000000000000000006000830152602082019050919050565b6000610e25600a8361127f565b91507f6f6e6c792061646d696e000000000000000000000000000000000000000000006000830152602082019050919050565b6000610e6560188361127f565b91507f69636f2073686f756c64206e6f742062652061637469766500000000000000006000830152602082019050919050565b6000610ea5601a8361127f565b91507f536166654d6174683a206469766973696f6e206279207a65726f0000000000006000830152602082019050919050565b6000610ee5600c8361127f565b91507f6f6e6c7920696e2074696d6500000000000000000000000000000000000000006000830152602082019050919050565b6000610f2560318361127f565b91507f20646169416d6f756e742073686f756c64206265206265747765656e206d696e60008301527f20616e64206d61782070757263686173650000000000000000000000000000006020830152604082019050919050565b6000610f8b600e8361127f565b91507f6f6e6c7920696e766572746f72730000000000000000000000000000000000006000830152602082019050919050565b6000610fcb60128361127f565b91507f69636f206d7573742062652061637469766500000000000000000000000000006000830152602082019050919050565b600061100b601c8361127f565b91507f746f6b656e73207765726520616c7265616479207769746864726177000000006000830152602082019050919050565b611047816112ce565b82525050565b60006020820190506110626000830184610dab565b92915050565b600060608201905061107d6000830186610d9c565b61108a6020830185610dab565b611097604083018461103e565b949350505050565b60006040820190506110b46000830185610dab565b6110c1602083018461103e565b9392505050565b600060c0820190506110dd6000830189610dab565b6110ea602083018861103e565b6110f7604083018761103e565b6111046060830186610dba565b611111608083018561103e565b61111e60a083018461103e565b979650505050505050565b600060208201905061113e6000830184610dc9565b92915050565b6000602082019050818103600083015261115d81610dd8565b9050919050565b6000602082019050818103600083015261117d81610e18565b9050919050565b6000602082019050818103600083015261119d81610e58565b9050919050565b600060208201905081810360008301526111bd81610e98565b9050919050565b600060208201905081810360008301526111dd81610ed8565b9050919050565b600060208201905081810360008301526111fd81610f18565b9050919050565b6000602082019050818103600083015261121d81610f7e565b9050919050565b6000602082019050818103600083015261123d81610fbe565b9050919050565b6000602082019050818103600083015261125d81610ffe565b9050919050565b6000602082019050611279600083018461103e565b92915050565b600082825260208201905092915050565b600061129b826112ae565b9050919050565b60008115159050919050565b600073ffffffffffffffffffffffffffffffffffffffff82169050919050565b6000819050919050565b60006112e38261130e565b9050919050565b60006112f5826112fc565b9050919050565b6000611307826112ae565b9050919050565b600061131982611320565b9050919050565b600061132b826112ae565b9050919050565b61133b81611290565b811461134657600080fd5b50565b611352816112a2565b811461135d57600080fd5b50565b611369816112ce565b811461137457600080fd5b5056fea2646970667358221220e274f566a0654552b04a4374a28a9cded012265ec7c138e841c3d0e8890a46fd64736f6c63430007000033",
  "immutableReferences": {},
  "source": "// SPDX-License-Identifier: MIT\npragma solidity 0.7.0;\npragma experimental ABIEncoderV2;\n\nimport './ERC20Token.sol';\nimport './Projects.sol';\n\n/**\n * @title Ico\n * @author : louis plessis\n * @notice Projet final\n * @dev \n */\n\n contract Ico {\n    using SafeMath for uint;\n\n    struct Sale{\n        address invertor;\n        uint daiLoan;\n        uint CFAmount;\n        bool tokensWithdrawn;\n        uint idProjet;\n        uint durationLoan;\n    }\n\n    mapping (address => Sale) public sales;\n    address public admin;\n    uint  public end;\n    uint  public duration;\n    uint  public price;\n    uint  public availableTokens;\n    uint  public minPurchase;\n    uint  public maxPurchase;\n    ERC20Token public CFtoken; // 0x85e591Ef83265680ce6F5D2916d115c458fbE2C4\n    \n     address daiTokenAddress = 0x4F96Fe3b7A6Cf9725f59d353F723c1bDb64CA6Aa;\n\n\n    //IERC20 dai = IERC20(0x4F96Fe3b7A6Cf9725f59d353F723c1bDb64CA6Aa);\n    address public defiContract = 0x4F96Fe3b7A6Cf9725f59d353F723c1bDb64CA6Aa; //A mettre dans le constructor ==> deploy\n\n    constructor(address tokenAddress, uint _duration, uint _price, uint _availableTokens, uint _minPurchase, uint _maxPurchase) public {\n       CFtoken = ERC20Token(tokenAddress);\n        require(_duration > 0,'_duration shloud be > 0');\n        require(_availableTokens > 0 && _availableTokens <= CFtoken.maxTotalSupply(),'_availableTokens should be > 0 and <= maxTotalSupply');\n        require(_minPurchase > 0,'_minPurchase shloud be > 0');\n        require(_maxPurchase > 0 && _maxPurchase <= _availableTokens,'_maxPurchase should be > 0 and <= availableTokens');\n        \n       \n\n        admin = msg.sender;\n        duration = _duration;\n        price = _price;\n        availableTokens = _availableTokens;\n        minPurchase = _minPurchase;\n        maxPurchase = _maxPurchase;\n    }\n\n    modifier onlyAdmin(){\n        require(msg.sender == admin,'only admin');\n        _;\n    }\n    modifier icoActive(){\n        require(end > 0 && block.timestamp < end && availableTokens > 0,'ico must be active');\n        _;\n    }\n    modifier icoNotActive(){\n        require(end == 0,'ico should not be active');\n        _;\n    }\n    modifier loanEnded(){\n         Sale storage sale = sales[msg.sender];  \n        require(sale.durationLoan >= block.timestamp,'only in time');\n        _;\n    }\n    modifier loanActive(){\n         Sale storage sale = sales[msg.sender];  \n        require(sale.durationLoan <= block.timestamp,'only in time');\n        _;\n    }\n    function start() external onlyAdmin() icoNotActive(){\n        end = block.timestamp + duration;\n    }\n    \n    function approve(uint daiAmount) public icoActive(){\n         IERC20 daiInstance = IERC20(daiTokenAddress);\n        daiInstance.approve(address(this), daiAmount);\n\n    }\n\n    function buy(uint daiLoan, uint durationLoan, uint idProjet) external icoActive(){\n        IERC20 daiInstance = IERC20(daiTokenAddress);\n\n        require(daiLoan >= minPurchase && daiLoan <= maxPurchase,' daiAmount should be between min and max purchase');\n        uint tokenAmount = daiLoan.div(price);\n        require(tokenAmount <= availableTokens,'not enought token');\n        daiInstance.transferFrom(msg.sender, address(this), daiLoan); //address(this)  remplacer par defiContract address\n        sales[msg.sender] = Sale(msg.sender,daiLoan,tokenAmount,false,idProjet,durationLoan);\n    }\n\n    function withdrawTokens() external {\n        Sale storage sale = sales[msg.sender];  \n        require(sale.daiLoan > 0,'only invertors');\n        require(sale.tokensWithdrawn == false,'tokens were already withdraw');\n        sale.tokensWithdrawn = true;\n        CFtoken.transfer(sale.invertor,sale.CFAmount);\n    }\n\n    function withdrawDai() external loanEnded(){\n        IERC20 daiInstance = IERC20(daiTokenAddress);\n\n        Sale storage sale = sales[msg.sender];  \n        require(sale.daiLoan > 0,'only invertors');\n        daiInstance.transfer(admin, sale.daiLoan ); //admin  remplacer par defiContract address\n\n    }\n   \n}\n",
  "sourcePath": "/Users/louisplessis/Documents/Alyra/ChainForest/contracts/Ico.sol",
  "compiler": {
    "name": "solc",
    "version": "0.7.0+commit.9e61f92b.Emscripten.clang"
  },
  "schemaVersion": "3.3.4",
  "updatedAt": "2021-04-15T09:53:34.948Z",
  "networkType": "ethereum",
  "devdoc": {
    "author": ": louis plessis",
    "kind": "dev",
    "methods": {},
    "title": "Ico",
    "version": 1
  },
  "userdoc": {
    "kind": "user",
    "methods": {},
    "notice": "Projet final",
    "version": 1
  }
}