{
  "contractName": "Ico",
  "abi": [
    {
      "inputs": [
        {
          "internalType": "address",
          "name": "tokenAddress",
          "type": "address"
        },
        {
          "internalType": "uint256",
          "name": "_duration",
          "type": "uint256"
        },
        {
          "internalType": "uint256",
          "name": "_price",
          "type": "uint256"
        },
        {
          "internalType": "uint256",
          "name": "_availableTokens",
          "type": "uint256"
        },
        {
          "internalType": "uint256",
          "name": "_minPurchase",
          "type": "uint256"
        },
        {
          "internalType": "uint256",
          "name": "_maxPurchase",
          "type": "uint256"
        }
      ],
      "stateMutability": "nonpayable",
      "type": "constructor"
    },
    {
      "inputs": [],
      "name": "CFtoken",
      "outputs": [
        {
          "internalType": "contract ERC20Token",
          "name": "",
          "type": "address"
        }
      ],
      "stateMutability": "view",
      "type": "function",
      "constant": true
    },
    {
      "inputs": [],
      "name": "admin",
      "outputs": [
        {
          "internalType": "address",
          "name": "",
          "type": "address"
        }
      ],
      "stateMutability": "view",
      "type": "function",
      "constant": true
    },
    {
      "inputs": [],
      "name": "availableTokens",
      "outputs": [
        {
          "internalType": "uint256",
          "name": "",
          "type": "uint256"
        }
      ],
      "stateMutability": "view",
      "type": "function",
      "constant": true
    },
    {
      "inputs": [],
      "name": "defiContract",
      "outputs": [
        {
          "internalType": "address",
          "name": "",
          "type": "address"
        }
      ],
      "stateMutability": "view",
      "type": "function",
      "constant": true
    },
    {
      "inputs": [],
      "name": "duration",
      "outputs": [
        {
          "internalType": "uint256",
          "name": "",
          "type": "uint256"
        }
      ],
      "stateMutability": "view",
      "type": "function",
      "constant": true
    },
    {
      "inputs": [],
      "name": "end",
      "outputs": [
        {
          "internalType": "uint256",
          "name": "",
          "type": "uint256"
        }
      ],
      "stateMutability": "view",
      "type": "function",
      "constant": true
    },
    {
      "inputs": [],
      "name": "maxPurchase",
      "outputs": [
        {
          "internalType": "uint256",
          "name": "",
          "type": "uint256"
        }
      ],
      "stateMutability": "view",
      "type": "function",
      "constant": true
    },
    {
      "inputs": [],
      "name": "minPurchase",
      "outputs": [
        {
          "internalType": "uint256",
          "name": "",
          "type": "uint256"
        }
      ],
      "stateMutability": "view",
      "type": "function",
      "constant": true
    },
    {
      "inputs": [],
      "name": "price",
      "outputs": [
        {
          "internalType": "uint256",
          "name": "",
          "type": "uint256"
        }
      ],
      "stateMutability": "view",
      "type": "function",
      "constant": true
    },
    {
      "inputs": [
        {
          "internalType": "address",
          "name": "",
          "type": "address"
        }
      ],
      "name": "sales",
      "outputs": [
        {
          "internalType": "address",
          "name": "invertor",
          "type": "address"
        },
        {
          "internalType": "uint256",
          "name": "daiLoan",
          "type": "uint256"
        },
        {
          "internalType": "uint256",
          "name": "CFAmount",
          "type": "uint256"
        },
        {
          "internalType": "bool",
          "name": "tokensWithdrawn",
          "type": "bool"
        },
        {
          "internalType": "uint256",
          "name": "idProjet",
          "type": "uint256"
        },
        {
          "internalType": "uint256",
          "name": "durationLoan",
          "type": "uint256"
        }
      ],
      "stateMutability": "view",
      "type": "function",
      "constant": true
    },
    {
      "inputs": [],
      "name": "workflowStatus",
      "outputs": [
        {
          "internalType": "enum Ico.WorkflowStatus",
          "name": "",
          "type": "uint8"
        }
      ],
      "stateMutability": "view",
      "type": "function",
      "constant": true
    },
    {
      "inputs": [],
      "name": "start",
      "outputs": [],
      "stateMutability": "nonpayable",
      "type": "function"
    },
    {
      "inputs": [
        {
          "internalType": "uint256",
          "name": "daiAmount",
          "type": "uint256"
        }
      ],
      "name": "approve",
      "outputs": [],
      "stateMutability": "nonpayable",
      "type": "function"
    },
    {
      "inputs": [
        {
          "internalType": "uint256",
          "name": "daiLoan",
          "type": "uint256"
        },
        {
          "internalType": "uint256",
          "name": "durationLoan",
          "type": "uint256"
        },
        {
          "internalType": "uint256",
          "name": "idProjet",
          "type": "uint256"
        }
      ],
      "name": "buy",
      "outputs": [],
      "stateMutability": "nonpayable",
      "type": "function"
    },
    {
      "inputs": [],
      "name": "withdrawTokens",
      "outputs": [],
      "stateMutability": "nonpayable",
      "type": "function"
    },
    {
      "inputs": [],
      "name": "withdrawDai",
      "outputs": [],
      "stateMutability": "nonpayable",
      "type": "function"
    },
    {
      "inputs": [],
      "name": "getWorkflowStatus",
      "outputs": [
        {
          "internalType": "enum Ico.WorkflowStatus",
          "name": "",
          "type": "uint8"
        }
      ],
      "stateMutability": "view",
      "type": "function",
      "constant": true
    }
  ],
  "bytecode": "0x6080604052734f96fe3b7a6cf9725f59d353f723c1bdb64ca6aa600960006101000a81548173ffffffffffffffffffffffffffffffffffffffff021916908373ffffffffffffffffffffffffffffffffffffffff160217905550734f96fe3b7a6cf9725f59d353f723c1bdb64ca6aa600a60006101000a81548173ffffffffffffffffffffffffffffffffffffffff021916908373ffffffffffffffffffffffffffffffffffffffff160217905550348015620000bb57600080fd5b5060405162001be738038062001be78339818101604052810190620000e1919062000395565b85600860006101000a81548173ffffffffffffffffffffffffffffffffffffffff021916908373ffffffffffffffffffffffffffffffffffffffff1602179055506000851162000168576040517f08c379a00000000000000000000000000000000000000000000000000000000081526004016200015f90620005cd565b60405180910390fd5b6000831180156200021c5750600860009054906101000a900473ffffffffffffffffffffffffffffffffffffffff1673ffffffffffffffffffffffffffffffffffffffff16632ab4d0526040518163ffffffff1660e01b815260040160206040518083038186803b158015620001dd57600080fd5b505afa158015620001f2573d6000803e3d6000fd5b505050506040513d601f19601f820116820180604052508101906200021891906200042b565b8311155b6200025e576040517f08c379a00000000000000000000000000000000000000000000000000000000081526004016200025590620005ab565b60405180910390fd5b60008211620002a4576040517f08c379a00000000000000000000000000000000000000000000000000000000081526004016200029b90620005ef565b60405180910390fd5b600081118015620002b55750828111155b620002f7576040517f08c379a0000000000000000000000000000000000000000000000000000000008152600401620002ee9062000611565b60405180910390fd5b33600160006101000a81548173ffffffffffffffffffffffffffffffffffffffff021916908373ffffffffffffffffffffffffffffffffffffffff1602179055508460038190555083600481905550826005819055508160068190555080600781905550505050505050620006b6565b600081519050620003788162000682565b92915050565b6000815190506200038f816200069c565b92915050565b60008060008060008060c08789031215620003af57600080fd5b6000620003bf89828a0162000367565b9650506020620003d289828a016200037e565b9550506040620003e589828a016200037e565b9450506060620003f889828a016200037e565b93505060806200040b89828a016200037e565b92505060a06200041e89828a016200037e565b9150509295509295509295565b6000602082840312156200043e57600080fd5b60006200044e848285016200037e565b91505092915050565b60006200046660348362000633565b91507f5f617661696c61626c65546f6b656e732073686f756c64206265203e2030206160008301527f6e64203c3d206d6178546f74616c537570706c790000000000000000000000006020830152604082019050919050565b6000620004ce60178362000633565b91507f5f6475726174696f6e2073686c6f7564206265203e20300000000000000000006000830152602082019050919050565b600062000510601a8362000633565b91507f5f6d696e50757263686173652073686c6f7564206265203e20300000000000006000830152602082019050919050565b60006200055260318362000633565b91507f5f6d617850757263686173652073686f756c64206265203e203020616e64203c60008301527f3d20617661696c61626c65546f6b656e730000000000000000000000000000006020830152604082019050919050565b60006020820190508181036000830152620005c68162000457565b9050919050565b60006020820190508181036000830152620005e881620004bf565b9050919050565b600060208201905081810360008301526200060a8162000501565b9050919050565b600060208201905081810360008301526200062c8162000543565b9050919050565b600082825260208201905092915050565b6000620006518262000658565b9050919050565b600073ffffffffffffffffffffffffffffffffffffffff82169050919050565b6000819050919050565b6200068d8162000644565b81146200069957600080fd5b50565b620006a78162000678565b8114620006b357600080fd5b50565b61152180620006c66000396000f3fe608060405234801561001057600080fd5b506004361061010b5760003560e01c8063a035b1fe116100a2578063c6b9f06a11610071578063c6b9f06a1461024c578063e4b6f79914610281578063efbe1c1c1461028b578063f75d64a6146102a9578063f851a440146102c75761010b565b8063a035b1fe146101ea578063a1edffa214610208578063b759f95414610226578063be9a6555146102425761010b565b8063569b8e57116100de578063569b8e571461018657806369bb4dc2146101a45780638d8f2adb146101c2578063977b055b146101cc5761010b565b80630fb5a6b4146101105780632ff205ee1461012e57806333b5b62e1461014c57806340993b261461016a575b600080fd5b6101186102e5565b60405161012591906113a6565b60405180910390f35b6101366102eb565b6040516101439190611174565b60405180910390f35b610154610311565b60405161016191906113a6565b60405180910390f35b610184600480360381019061017f9190610e65565b610317565b005b61018e6105f6565b60405161019b9190611250565b60405180910390f35b6101ac61061c565b6040516101b991906113a6565b60405180910390f35b6101ca610622565b005b6101d4610885565b6040516101e191906113a6565b60405180910390f35b6101f261088b565b6040516101ff91906113a6565b60405180910390f35b610210610891565b60405161021d919061126b565b60405180910390f35b610240600480360381019061023b9190610e3c565b6108a4565b005b61024a6109b7565b005b61026660048036038101906102619190610dea565b610abd565b604051610278969594939291906111ef565b60405180910390f35b610289610b26565b005b610293610d12565b6040516102a091906113a6565b60405180910390f35b6102b1610d18565b6040516102be919061126b565b60405180910390f35b6102cf610d2f565b6040516102dc9190611174565b60405180910390f35b60035481565b600a60009054906101000a900473ffffffffffffffffffffffffffffffffffffffff1681565b60065481565b600060025411801561032a575060025442105b801561033857506000600554115b610377576040517f08c379a000000000000000000000000000000000000000000000000000000000815260040161036e90611366565b60405180910390fd5b600654831015801561038b57506007548311155b6103ca576040517f08c379a00000000000000000000000000000000000000000000000000000000081526004016103c190611326565b60405180910390fd5b60006103e160045485610d5590919063ffffffff16565b9050600554811115610428576040517f08c379a000000000000000000000000000000000000000000000000000000000815260040161041f90611286565b60405180910390fd5b600960009054906101000a900473ffffffffffffffffffffffffffffffffffffffff1673ffffffffffffffffffffffffffffffffffffffff166323b872dd3330876040518463ffffffff1660e01b81526004016104879392919061118f565b602060405180830381600087803b1580156104a157600080fd5b505af11580156104b5573d6000803e3d6000fd5b505050506040513d601f19601f820116820180604052508101906104d99190610e13565b506040518060c001604052803373ffffffffffffffffffffffffffffffffffffffff168152602001858152602001828152602001600015158152602001838152602001848152506000803373ffffffffffffffffffffffffffffffffffffffff1673ffffffffffffffffffffffffffffffffffffffff16815260200190815260200160002060008201518160000160006101000a81548173ffffffffffffffffffffffffffffffffffffffff021916908373ffffffffffffffffffffffffffffffffffffffff160217905550602082015181600101556040820151816002015560608201518160030160006101000a81548160ff0219169083151502179055506080820151816004015560a0820151816005015590505050505050565b600860009054906101000a900473ffffffffffffffffffffffffffffffffffffffff1681565b60055481565b60008060003373ffffffffffffffffffffffffffffffffffffffff1673ffffffffffffffffffffffffffffffffffffffff168152602001908152602001600020905042816005015411156106ab576040517f08c379a00000000000000000000000000000000000000000000000000000000081526004016106a290611306565b60405180910390fd5b60008060003373ffffffffffffffffffffffffffffffffffffffff1673ffffffffffffffffffffffffffffffffffffffff16815260200190815260200160002090506000816001015411610734576040517f08c379a000000000000000000000000000000000000000000000000000000000815260040161072b90611346565b60405180910390fd5b600015158160030160009054906101000a900460ff1615151461078c576040517f08c379a000000000000000000000000000000000000000000000000000000000815260040161078390611386565b60405180910390fd5b60018160030160006101000a81548160ff021916908315150217905550600860009054906101000a900473ffffffffffffffffffffffffffffffffffffffff1673ffffffffffffffffffffffffffffffffffffffff1663a9059cbb8260000160009054906101000a900473ffffffffffffffffffffffffffffffffffffffff1683600201546040518363ffffffff1660e01b815260040161082e9291906111c6565b602060405180830381600087803b15801561084857600080fd5b505af115801561085c573d6000803e3d6000fd5b505050506040513d601f19601f820116820180604052508101906108809190610e13565b505050565b60075481565b60045481565b600860149054906101000a900460ff1681565b60006002541180156108b7575060025442105b80156108c557506000600554115b610904576040517f08c379a00000000000000000000000000000000000000000000000000000000081526004016108fb90611366565b60405180910390fd5b600960009054906101000a900473ffffffffffffffffffffffffffffffffffffffff1673ffffffffffffffffffffffffffffffffffffffff1663095ea7b330836040518363ffffffff1660e01b81526004016109619291906111c6565b602060405180830381600087803b15801561097b57600080fd5b505af115801561098f573d6000803e3d6000fd5b505050506040513d601f19601f820116820180604052508101906109b39190610e13565b5050565b600160009054906101000a900473ffffffffffffffffffffffffffffffffffffffff1673ffffffffffffffffffffffffffffffffffffffff163373ffffffffffffffffffffffffffffffffffffffff1614610a47576040517f08c379a0000000000000000000000000000000000000000000000000000000008152600401610a3e906112a6565b60405180910390fd5b600060025414610a8c576040517f08c379a0000000000000000000000000000000000000000000000000000000008152600401610a83906112c6565b60405180910390fd5b60035442016002819055506001600860146101000a81548160ff02191690836002811115610ab657fe5b0217905550565b60006020528060005260406000206000915090508060000160009054906101000a900473ffffffffffffffffffffffffffffffffffffffff16908060010154908060020154908060030160009054906101000a900460ff16908060040154908060050154905086565b60008060003373ffffffffffffffffffffffffffffffffffffffff1673ffffffffffffffffffffffffffffffffffffffff16815260200190815260200160002090504281600501541015610baf576040517f08c379a0000000000000000000000000000000000000000000000000000000008152600401610ba690611306565b60405180910390fd5b60008060003373ffffffffffffffffffffffffffffffffffffffff1673ffffffffffffffffffffffffffffffffffffffff16815260200190815260200160002090506000816001015411610c38576040517f08c379a0000000000000000000000000000000000000000000000000000000008152600401610c2f90611346565b60405180910390fd5b600960009054906101000a900473ffffffffffffffffffffffffffffffffffffffff1673ffffffffffffffffffffffffffffffffffffffff1663a9059cbb600160009054906101000a900473ffffffffffffffffffffffffffffffffffffffff1683600101546040518363ffffffff1660e01b8152600401610cbb9291906111c6565b602060405180830381600087803b158015610cd557600080fd5b505af1158015610ce9573d6000803e3d6000fd5b505050506040513d601f19601f82011682018060405250810190610d0d9190610e13565b505050565b60025481565b6000600860149054906101000a900460ff16905090565b600160009054906101000a900473ffffffffffffffffffffffffffffffffffffffff1681565b6000808211610d99576040517f08c379a0000000000000000000000000000000000000000000000000000000008152600401610d90906112e6565b60405180910390fd5b818381610da257fe5b04905092915050565b600081359050610dba816114a6565b92915050565b600081519050610dcf816114bd565b92915050565b600081359050610de4816114d4565b92915050565b600060208284031215610dfc57600080fd5b6000610e0a84828501610dab565b91505092915050565b600060208284031215610e2557600080fd5b6000610e3384828501610dc0565b91505092915050565b600060208284031215610e4e57600080fd5b6000610e5c84828501610dd5565b91505092915050565b600080600060608486031215610e7a57600080fd5b6000610e8886828701610dd5565b9350506020610e9986828701610dd5565b9250506040610eaa86828701610dd5565b9150509250925092565b610ebd8161142d565b82525050565b610ecc816113d2565b82525050565b610edb816113e4565b82525050565b610eea8161143f565b82525050565b610ef981611463565b82525050565b6000610f0c6011836113c1565b91507f6e6f7420656e6f7567687420746f6b656e0000000000000000000000000000006000830152602082019050919050565b6000610f4c600a836113c1565b91507f6f6e6c792061646d696e000000000000000000000000000000000000000000006000830152602082019050919050565b6000610f8c6018836113c1565b91507f69636f2073686f756c64206e6f742062652061637469766500000000000000006000830152602082019050919050565b6000610fcc601a836113c1565b91507f536166654d6174683a206469766973696f6e206279207a65726f0000000000006000830152602082019050919050565b600061100c600c836113c1565b91507f6f6e6c7920696e2074696d6500000000000000000000000000000000000000006000830152602082019050919050565b600061104c6031836113c1565b91507f20646169416d6f756e742073686f756c64206265206265747765656e206d696e60008301527f20616e64206d61782070757263686173650000000000000000000000000000006020830152604082019050919050565b60006110b2600e836113c1565b91507f6f6e6c7920696e766572746f72730000000000000000000000000000000000006000830152602082019050919050565b60006110f26012836113c1565b91507f69636f206d7573742062652061637469766500000000000000000000000000006000830152602082019050919050565b6000611132601c836113c1565b91507f746f6b656e73207765726520616c7265616479207769746864726177000000006000830152602082019050919050565b61116e81611423565b82525050565b60006020820190506111896000830184610ec3565b92915050565b60006060820190506111a46000830186610eb4565b6111b16020830185610ec3565b6111be6040830184611165565b949350505050565b60006040820190506111db6000830185610ec3565b6111e86020830184611165565b9392505050565b600060c0820190506112046000830189610ec3565b6112116020830188611165565b61121e6040830187611165565b61122b6060830186610ed2565b6112386080830185611165565b61124560a0830184611165565b979650505050505050565b60006020820190506112656000830184610ee1565b92915050565b60006020820190506112806000830184610ef0565b92915050565b6000602082019050818103600083015261129f81610eff565b9050919050565b600060208201905081810360008301526112bf81610f3f565b9050919050565b600060208201905081810360008301526112df81610f7f565b9050919050565b600060208201905081810360008301526112ff81610fbf565b9050919050565b6000602082019050818103600083015261131f81610fff565b9050919050565b6000602082019050818103600083015261133f8161103f565b9050919050565b6000602082019050818103600083015261135f816110a5565b9050919050565b6000602082019050818103600083015261137f816110e5565b9050919050565b6000602082019050818103600083015261139f81611125565b9050919050565b60006020820190506113bb6000830184611165565b92915050565b600082825260208201905092915050565b60006113dd82611403565b9050919050565b60008115159050919050565b60008190506113fe82611499565b919050565b600073ffffffffffffffffffffffffffffffffffffffff82169050919050565b6000819050919050565b600061143882611475565b9050919050565b600061144a82611451565b9050919050565b600061145c82611403565b9050919050565b600061146e826113f0565b9050919050565b600061148082611487565b9050919050565b600061149282611403565b9050919050565b600381106114a357fe5b50565b6114af816113d2565b81146114ba57600080fd5b50565b6114c6816113e4565b81146114d157600080fd5b50565b6114dd81611423565b81146114e857600080fd5b5056fea2646970667358221220fae1ea7e731985e9247309c4299528225f73d627d2f535af225cc488d0a9b14f64736f6c63430007000033",
  "immutableReferences": {},
  "source": "// SPDX-License-Identifier: MIT\npragma solidity 0.7.0;\npragma experimental ABIEncoderV2;\n\nimport './ERC20Token.sol';\nimport './Projects.sol';\n\n/**\n * @title Ico\n * @author : louis plessis\n * @notice Projet final\n * @dev \n */\n\n contract Ico {\n    using SafeMath for uint;\n    enum WorkflowStatus {\n        notStarted, //0\n        started, // 1\n        ended // 2\n    }\n\n    struct Sale{\n        address invertor;\n        uint daiLoan;\n        uint CFAmount;\n        bool tokensWithdrawn;\n        uint idProjet;\n        uint durationLoan;\n    }\n\n    mapping (address => Sale) public sales;\n    address public admin;\n    uint  public end;\n    uint  public duration;\n    uint  public price;\n    uint  public availableTokens;\n    uint  public minPurchase;\n    uint  public maxPurchase;\n    ERC20Token public CFtoken; // 0x85e591Ef83265680ce6F5D2916d115c458fbE2C4\n    \n     // status du contrat\n    WorkflowStatus public workflowStatus;\n\n    IERC20 dai = IERC20(0x4F96Fe3b7A6Cf9725f59d353F723c1bDb64CA6Aa);\n    address public defiContract = 0x4F96Fe3b7A6Cf9725f59d353F723c1bDb64CA6Aa; //A mettre dans le constructor ==> deploy\n\n    constructor(address tokenAddress, uint _duration, uint _price, uint _availableTokens, uint _minPurchase, uint _maxPurchase) public {\n       CFtoken = ERC20Token(tokenAddress);\n        require(_duration > 0,'_duration shloud be > 0');\n        require(_availableTokens > 0 && _availableTokens <= CFtoken.maxTotalSupply(),'_availableTokens should be > 0 and <= maxTotalSupply');\n        require(_minPurchase > 0,'_minPurchase shloud be > 0');\n        require(_maxPurchase > 0 && _maxPurchase <= _availableTokens,'_maxPurchase should be > 0 and <= availableTokens');\n        \n       \n\n        admin = msg.sender;\n        duration = _duration;\n        price = _price;\n        availableTokens = _availableTokens;\n        minPurchase = _minPurchase;\n        maxPurchase = _maxPurchase;\n    }\n\n    modifier onlyAdmin(){\n        require(msg.sender == admin,'only admin');\n        _;\n    }\n    modifier icoActive(){\n        require(end > 0 && block.timestamp < end && availableTokens > 0,'ico must be active');\n        _;\n    }\n    modifier icoNotActive(){\n        require(end == 0,'ico should not be active');\n        _;\n    }\n    modifier loanEnded(){\n         Sale storage sale = sales[msg.sender];  \n        require(sale.durationLoan >= block.timestamp,'only in time');\n        _;\n    }\n    modifier loanActive(){\n         Sale storage sale = sales[msg.sender];  \n        require(sale.durationLoan <= block.timestamp,'only in time');\n        _;\n    }\n    function start() external onlyAdmin() icoNotActive(){\n        end = block.timestamp + duration;\n        workflowStatus = WorkflowStatus.started;\n\n    }\n    \n    function approve(uint daiAmount) external icoActive(){\n        dai.approve(address(this), daiAmount);\n    \n    }\n\n    function buy(uint daiLoan, uint durationLoan, uint idProjet) external icoActive(){\n        require(daiLoan >= minPurchase && daiLoan <= maxPurchase,' daiAmount should be between min and max purchase');\n        uint tokenAmount = daiLoan.div(price);\n        require(tokenAmount <= availableTokens,'not enought token');\n        dai.transferFrom(msg.sender, address(this), daiLoan); //address(this)  remplacer par defiContract address\n        sales[msg.sender] = Sale(msg.sender,daiLoan,tokenAmount,false,idProjet,durationLoan);\n    }\n\n    function withdrawTokens() external loanActive(){\n        Sale storage sale = sales[msg.sender];  \n        require(sale.daiLoan > 0,'only invertors');\n        require(sale.tokensWithdrawn == false,'tokens were already withdraw');\n        sale.tokensWithdrawn = true;\n        CFtoken.transfer(sale.invertor,sale.CFAmount);\n    }\n\n    function withdrawDai() external loanEnded(){\n        Sale storage sale = sales[msg.sender];  \n        require(sale.daiLoan > 0,'only invertors');\n        dai.transfer(admin, sale.daiLoan ); //admin  remplacer par defiContract address\n\n    }\n    function getWorkflowStatus() external view returns (WorkflowStatus) {\n         return workflowStatus;       \n     }\n}\n",
  "sourcePath": "/Users/louisplessis/Documents/Alyra/ChainForest/contracts/Ico.sol",
  "compiler": {
    "name": "solc",
    "version": "0.7.0+commit.9e61f92b.Emscripten.clang"
  },
  "schemaVersion": "3.3.4",
  "updatedAt": "2021-04-14T11:30:51.257Z",
  "networkType": "ethereum",
  "devdoc": {
    "author": ": louis plessis",
    "kind": "dev",
    "methods": {},
    "title": "Ico",
    "version": 1
  },
  "userdoc": {
    "kind": "user",
    "methods": {},
    "notice": "Projet final",
    "version": 1
  }
}