{
  "contractName": "Projects",
  "abi": [
    {
      "inputs": [],
      "stateMutability": "nonpayable",
      "type": "constructor"
    },
    {
      "anonymous": false,
      "inputs": [
        {
          "indexed": true,
          "internalType": "address",
          "name": "previousOwner",
          "type": "address"
        },
        {
          "indexed": true,
          "internalType": "address",
          "name": "newOwner",
          "type": "address"
        }
      ],
      "name": "OwnershipTransferred",
      "type": "event"
    },
    {
      "anonymous": false,
      "inputs": [
        {
          "indexed": false,
          "internalType": "uint256",
          "name": "projetId",
          "type": "uint256"
        }
      ],
      "name": "ProjectDeleted",
      "type": "event"
    },
    {
      "anonymous": false,
      "inputs": [
        {
          "indexed": false,
          "internalType": "uint256",
          "name": "projetId",
          "type": "uint256"
        }
      ],
      "name": "ProjectRegistered",
      "type": "event"
    },
    {
      "inputs": [],
      "name": "owner",
      "outputs": [
        {
          "internalType": "address",
          "name": "",
          "type": "address"
        }
      ],
      "stateMutability": "view",
      "type": "function"
    },
    {
      "inputs": [],
      "name": "renounceOwnership",
      "outputs": [],
      "stateMutability": "nonpayable",
      "type": "function"
    },
    {
      "inputs": [],
      "name": "result",
      "outputs": [
        {
          "internalType": "uint256",
          "name": "",
          "type": "uint256"
        }
      ],
      "stateMutability": "view",
      "type": "function"
    },
    {
      "inputs": [
        {
          "internalType": "address",
          "name": "newOwner",
          "type": "address"
        }
      ],
      "name": "transferOwnership",
      "outputs": [],
      "stateMutability": "nonpayable",
      "type": "function"
    },
    {
      "inputs": [],
      "name": "getProject",
      "outputs": [
        {
          "components": [
            {
              "internalType": "string",
              "name": "description",
              "type": "string"
            }
          ],
          "internalType": "struct Projects.Project[]",
          "name": "",
          "type": "tuple[]"
        }
      ],
      "stateMutability": "view",
      "type": "function"
    },
    {
      "inputs": [
        {
          "internalType": "string",
          "name": "_description",
          "type": "string"
        }
      ],
      "name": "registerProjet",
      "outputs": [],
      "stateMutability": "nonpayable",
      "type": "function"
    },
    {
      "inputs": [
        {
          "internalType": "uint256",
          "name": "idProject",
          "type": "uint256"
        }
      ],
      "name": "deleteProjet",
      "outputs": [],
      "stateMutability": "nonpayable",
      "type": "function"
    }
  ],
  "bytecode": "0x608060405234801561001057600080fd5b5060006100216100c460201b60201c565b9050806000806101000a81548173ffffffffffffffffffffffffffffffffffffffff021916908373ffffffffffffffffffffffffffffffffffffffff1602179055508073ffffffffffffffffffffffffffffffffffffffff16600073ffffffffffffffffffffffffffffffffffffffff167f8be0079c531659141344cd1fd0a4f28419497f9722a3daafe3b4186f6b6457e060405160405180910390a3506100cc565b600033905090565b610d36806100db6000396000f3fe608060405234801561001057600080fd5b506004361061007d5760003560e01c80638da5cb5b1161005b5780638da5cb5b146100c85780639afc86f0146100e6578063b8359b0614610102578063f2fde38b1461011e5761007d565b806365372147146100825780636e57b700146100a0578063715018a6146100be575b600080fd5b61008a61013a565b6040516100979190610b69565b60405180910390f35b6100a8610140565b6040516100b59190610b07565b60405180910390f35b6100c661023d565b005b6100d0610377565b6040516100dd9190610aec565b60405180910390f35b61010060048036038101906100fb9190610913565b6103a0565b005b61011c600480360381019061011791906108d2565b610485565b005b610138600480360381019061013391906108a9565b610595565b005b60025481565b60606001805480602002602001604051908101604052809291908181526020016000905b8282101561023457838290600052602060002001604051806020016040529081600082018054600181600116156101000203166002900480601f01602080910402602001604051908101604052809291908181526020018280546001816001161561010002031660029004801561021c5780601f106101f15761010080835404028352916020019161021c565b820191906000526020600020905b8154815290600101906020018083116101ff57829003601f168201915b50505050508152505081526020019060010190610164565b50505050905090565b61024561073e565b73ffffffffffffffffffffffffffffffffffffffff16610263610377565b73ffffffffffffffffffffffffffffffffffffffff16146102b9576040517f08c379a00000000000000000000000000000000000000000000000000000000081526004016102b090610b49565b60405180910390fd5b600073ffffffffffffffffffffffffffffffffffffffff1660008054906101000a900473ffffffffffffffffffffffffffffffffffffffff1673ffffffffffffffffffffffffffffffffffffffff167f8be0079c531659141344cd1fd0a4f28419497f9722a3daafe3b4186f6b6457e060405160405180910390a360008060006101000a81548173ffffffffffffffffffffffffffffffffffffffff021916908373ffffffffffffffffffffffffffffffffffffffff160217905550565b60008060009054906101000a900473ffffffffffffffffffffffffffffffffffffffff16905090565b6103a861073e565b73ffffffffffffffffffffffffffffffffffffffff166103c6610377565b73ffffffffffffffffffffffffffffffffffffffff161461041c576040517f08c379a000000000000000000000000000000000000000000000000000000000815260040161041390610b49565b60405180910390fd5b6001818154811061042957fe5b90600052602060002001600080820160006104449190610746565b50507f8c2a9a6341bba6c545de035fe1175518191d1ec50716506635b641372af17c5f60018054905060405161047a9190610b69565b60405180910390a150565b61048d61073e565b73ffffffffffffffffffffffffffffffffffffffff166104ab610377565b73ffffffffffffffffffffffffffffffffffffffff1614610501576040517f08c379a00000000000000000000000000000000000000000000000000000000081526004016104f890610b49565b60405180910390fd5b600160405180602001604052808381525090806001815401808255809150506001900390600052602060002001600090919091909150600082015181600001908051906020019061055392919061078e565b5050507ffee73c70d73668319c51a83ac3b19cbe37da12af171bec2e93cadea345ff13bd60018054905060405161058a9190610b69565b60405180910390a150565b61059d61073e565b73ffffffffffffffffffffffffffffffffffffffff166105bb610377565b73ffffffffffffffffffffffffffffffffffffffff1614610611576040517f08c379a000000000000000000000000000000000000000000000000000000000815260040161060890610b49565b60405180910390fd5b600073ffffffffffffffffffffffffffffffffffffffff168173ffffffffffffffffffffffffffffffffffffffff161415610681576040517f08c379a000000000000000000000000000000000000000000000000000000000815260040161067890610b29565b60405180910390fd5b8073ffffffffffffffffffffffffffffffffffffffff1660008054906101000a900473ffffffffffffffffffffffffffffffffffffffff1673ffffffffffffffffffffffffffffffffffffffff167f8be0079c531659141344cd1fd0a4f28419497f9722a3daafe3b4186f6b6457e060405160405180910390a3806000806101000a81548173ffffffffffffffffffffffffffffffffffffffff021916908373ffffffffffffffffffffffffffffffffffffffff16021790555050565b600033905090565b50805460018160011615610100020316600290046000825580601f1061076c575061078b565b601f01602090049060005260206000209081019061078a919061080e565b5b50565b828054600181600116156101000203166002900490600052602060002090601f016020900481019282601f106107cf57805160ff19168380011785556107fd565b828001600101855582156107fd579182015b828111156107fc5782518255916020019190600101906107e1565b5b50905061080a919061080e565b5090565b5b8082111561082757600081600090555060010161080f565b5090565b60008135905061083a81610cd2565b92915050565b600082601f83011261085157600080fd5b813561086461085f82610bb1565b610b84565b9150808252602083016020830185838301111561088057600080fd5b61088b838284610c7f565b50505092915050565b6000813590506108a381610ce9565b92915050565b6000602082840312156108bb57600080fd5b60006108c98482850161082b565b91505092915050565b6000602082840312156108e457600080fd5b600082013567ffffffffffffffff8111156108fe57600080fd5b61090a84828501610840565b91505092915050565b60006020828403121561092557600080fd5b600061093384828501610894565b91505092915050565b60006109488383610ab3565b905092915050565b61095981610c43565b82525050565b600061096a82610bed565b6109748185610c10565b93508360208202850161098685610bdd565b8060005b858110156109c257848403895281516109a3858261093c565b94506109ae83610c03565b925060208a0199505060018101905061098a565b50829750879550505050505092915050565b60006109df82610bf8565b6109e98185610c21565b93506109f9818560208601610c8e565b610a0281610cc1565b840191505092915050565b6000610a1a602683610c32565b91507f4f776e61626c653a206e6577206f776e657220697320746865207a65726f206160008301527f64647265737300000000000000000000000000000000000000000000000000006020830152604082019050919050565b6000610a80602083610c32565b91507f4f776e61626c653a2063616c6c6572206973206e6f7420746865206f776e65726000830152602082019050919050565b60006020830160008301518482036000860152610ad082826109d4565b9150508091505092915050565b610ae681610c75565b82525050565b6000602082019050610b016000830184610950565b92915050565b60006020820190508181036000830152610b21818461095f565b905092915050565b60006020820190508181036000830152610b4281610a0d565b9050919050565b60006020820190508181036000830152610b6281610a73565b9050919050565b6000602082019050610b7e6000830184610add565b92915050565b6000604051905081810181811067ffffffffffffffff82111715610ba757600080fd5b8060405250919050565b600067ffffffffffffffff821115610bc857600080fd5b601f19601f8301169050602081019050919050565b6000819050602082019050919050565b600081519050919050565b600081519050919050565b6000602082019050919050565b600082825260208201905092915050565b600082825260208201905092915050565b600082825260208201905092915050565b6000610c4e82610c55565b9050919050565b600073ffffffffffffffffffffffffffffffffffffffff82169050919050565b6000819050919050565b82818337600083830152505050565b60005b83811015610cac578082015181840152602081019050610c91565b83811115610cbb576000848401525b50505050565b6000601f19601f8301169050919050565b610cdb81610c43565b8114610ce657600080fd5b50565b610cf281610c75565b8114610cfd57600080fd5b5056fea264697066735822122055c37d22097a2059e3fa2a404b1096b4655592596e16dfcfc90dbf0f1d93802064736f6c63430007000033",
  "immutableReferences": {},
  "source": "// SPDX-License-Identifier: MIT\npragma solidity 0.7.0;\npragma experimental ABIEncoderV2;\n\nimport \"@openzeppelin/contracts/access/Ownable.sol\";\n\n/**\n * @title Projets\n * @notice Projet Finale\n * @dev \n */\n  contract Projects is Ownable {\n     struct Project {\n        string description;\n    }\n\n    Project[] private projects;\n\n    event ProjectRegistered(uint projetId);\n    event ProjectDeleted(uint projetId);\n\n    uint public result;\n\n     constructor() public {\n    }\n\n    function getProject() public  view returns (Project[] memory){\n        return projects;\n    }\n\n    function registerProjet(string memory _description) public onlyOwner{\n        projects.push(Project(_description));\n        emit ProjectRegistered(projects.length);\n    }\n\n    function deleteProjet(uint idProject) public onlyOwner{\n        delete projects[idProject];\n        emit ProjectDeleted(projects.length);\n    }\n    \n\n   \n    \n\n   \n}\n",
  "sourcePath": "/Users/louisplessis/Documents/Alyra/ChainForest/contracts/Projects.sol",
  "compiler": {
    "name": "solc",
    "version": "0.7.0+commit.9e61f92b.Emscripten.clang"
  },
  "schemaVersion": "3.3.4",
  "updatedAt": "2021-04-15T11:40:26.334Z",
  "devdoc": {
    "kind": "dev",
    "methods": {
      "owner()": {
        "details": "Returns the address of the current owner."
      },
      "renounceOwnership()": {
        "details": "Leaves the contract without owner. It will not be possible to call `onlyOwner` functions anymore. Can only be called by the current owner. NOTE: Renouncing ownership will leave the contract without an owner, thereby removing any functionality that is only available to the owner."
      },
      "transferOwnership(address)": {
        "details": "Transfers ownership of the contract to a new account (`newOwner`). Can only be called by the current owner."
      }
    },
    "title": "Projets",
    "version": 1
  },
  "userdoc": {
    "kind": "user",
    "methods": {},
    "notice": "Projet Finale",
    "version": 1
  }
}