{
  "contractName": "Voting",
  "abi": [
    {
      "inputs": [
        {
          "internalType": "address",
          "name": "daiAddress",
          "type": "address"
        }
      ],
      "stateMutability": "nonpayable",
      "type": "constructor"
    },
    {
      "anonymous": false,
      "inputs": [
        {
          "indexed": false,
          "internalType": "uint256",
          "name": "proposalId",
          "type": "uint256"
        }
      ],
      "name": "ProposalRegistered",
      "type": "event"
    },
    {
      "anonymous": false,
      "inputs": [],
      "name": "ProposalsRegistrationEnded",
      "type": "event"
    },
    {
      "anonymous": false,
      "inputs": [],
      "name": "ProposalsRegistrationStarted",
      "type": "event"
    },
    {
      "anonymous": false,
      "inputs": [
        {
          "indexed": false,
          "internalType": "address",
          "name": "voter",
          "type": "address"
        },
        {
          "indexed": false,
          "internalType": "uint256",
          "name": "proposalId",
          "type": "uint256"
        }
      ],
      "name": "Voted",
      "type": "event"
    },
    {
      "anonymous": false,
      "inputs": [
        {
          "indexed": false,
          "internalType": "address",
          "name": "voterAddress",
          "type": "address"
        }
      ],
      "name": "VoterRegistered",
      "type": "event"
    },
    {
      "anonymous": false,
      "inputs": [],
      "name": "VotesTallied",
      "type": "event"
    },
    {
      "anonymous": false,
      "inputs": [],
      "name": "VotingSessionEnded",
      "type": "event"
    },
    {
      "anonymous": false,
      "inputs": [],
      "name": "VotingSessionStarted",
      "type": "event"
    },
    {
      "anonymous": false,
      "inputs": [
        {
          "indexed": false,
          "internalType": "enum Voting.WorkflowStatus",
          "name": "previousStatus",
          "type": "uint8"
        },
        {
          "indexed": false,
          "internalType": "enum Voting.WorkflowStatus",
          "name": "newStatus",
          "type": "uint8"
        }
      ],
      "name": "WorkflowStatusChange",
      "type": "event"
    },
    {
      "inputs": [],
      "name": "winningProposalId",
      "outputs": [
        {
          "internalType": "uint256",
          "name": "",
          "type": "uint256"
        }
      ],
      "stateMutability": "view",
      "type": "function"
    },
    {
      "inputs": [],
      "name": "workflowStatus",
      "outputs": [
        {
          "internalType": "enum Voting.WorkflowStatus",
          "name": "",
          "type": "uint8"
        }
      ],
      "stateMutability": "view",
      "type": "function"
    },
    {
      "inputs": [],
      "name": "owner",
      "outputs": [
        {
          "internalType": "address",
          "name": "",
          "type": "address"
        }
      ],
      "stateMutability": "view",
      "type": "function"
    },
    {
      "inputs": [
        {
          "internalType": "address",
          "name": "recipient",
          "type": "address"
        },
        {
          "internalType": "uint256",
          "name": "amount",
          "type": "uint256"
        }
      ],
      "name": "foo",
      "outputs": [],
      "stateMutability": "nonpayable",
      "type": "function"
    },
    {
      "inputs": [
        {
          "internalType": "address",
          "name": "addr",
          "type": "address"
        }
      ],
      "name": "register",
      "outputs": [],
      "stateMutability": "nonpayable",
      "type": "function"
    },
    {
      "inputs": [],
      "name": "startProposalsRegistration",
      "outputs": [],
      "stateMutability": "nonpayable",
      "type": "function"
    },
    {
      "inputs": [],
      "name": "getProposal",
      "outputs": [
        {
          "components": [
            {
              "internalType": "string",
              "name": "description",
              "type": "string"
            },
            {
              "internalType": "uint256",
              "name": "voteCount",
              "type": "uint256"
            }
          ],
          "internalType": "struct Voting.Proposal[]",
          "name": "",
          "type": "tuple[]"
        }
      ],
      "stateMutability": "view",
      "type": "function"
    },
    {
      "inputs": [],
      "name": "getWhitelist",
      "outputs": [
        {
          "internalType": "address[]",
          "name": "",
          "type": "address[]"
        }
      ],
      "stateMutability": "view",
      "type": "function"
    },
    {
      "inputs": [],
      "name": "getWorkflowStatus",
      "outputs": [
        {
          "internalType": "enum Voting.WorkflowStatus",
          "name": "",
          "type": "uint8"
        }
      ],
      "stateMutability": "view",
      "type": "function"
    },
    {
      "inputs": [
        {
          "internalType": "string",
          "name": "description",
          "type": "string"
        }
      ],
      "name": "registerProposal",
      "outputs": [],
      "stateMutability": "nonpayable",
      "type": "function"
    },
    {
      "inputs": [],
      "name": "endProposalsRegistration",
      "outputs": [],
      "stateMutability": "nonpayable",
      "type": "function"
    },
    {
      "inputs": [],
      "name": "startVotingSession",
      "outputs": [],
      "stateMutability": "nonpayable",
      "type": "function"
    },
    {
      "inputs": [
        {
          "internalType": "uint256",
          "name": "proposalId",
          "type": "uint256"
        }
      ],
      "name": "vote",
      "outputs": [],
      "stateMutability": "nonpayable",
      "type": "function"
    },
    {
      "inputs": [],
      "name": "endVotingSession",
      "outputs": [],
      "stateMutability": "nonpayable",
      "type": "function"
    },
    {
      "inputs": [],
      "name": "tally",
      "outputs": [],
      "stateMutability": "nonpayable",
      "type": "function"
    }
  ],
  "bytecode": "0x60806040523480156200001157600080fd5b50604051620023d2380380620023d28339818101604052810190620000379190620000d6565b33600560006101000a81548173ffffffffffffffffffffffffffffffffffffffff021916908373ffffffffffffffffffffffffffffffffffffffff160217905550806000806101000a81548173ffffffffffffffffffffffffffffffffffffffff021916908373ffffffffffffffffffffffffffffffffffffffff1602179055505062000150565b600081519050620000d08162000136565b92915050565b600060208284031215620000e957600080fd5b6000620000f984828501620000bf565b91505092915050565b60006200010f8262000116565b9050919050565b600073ffffffffffffffffffffffffffffffffffffffff82169050919050565b620001418162000102565b81146200014d57600080fd5b50565b61227280620001606000396000f3fe608060405234801561001057600080fd5b50600436106100f55760003560e01c8063a7bfab1611610097578063d01f63f511610066578063d01f63f514610200578063e09b8c791461021e578063ee74c67814610228578063f75d64a614610232576100f5565b8063a7bfab161461019e578063b9e2bea0146101a8578063bd0d639f146101c6578063c64963c5146101e2576100f5565b80634420e486116100d35780634420e4861461013c5780636c297445146101585780638da5cb5b14610162578063a1edffa214610180576100f5565b80630121b93f146100fa5780632f95355b14610116578063410673e514610132575b600080fd5b610114600480360381019061010f91906117dc565b610250565b005b610130600480360381019061012b919061179b565b610529565b005b61013a6107b3565b005b6101566004803603810190610151919061170d565b6109b7565b005b610160610cb3565b005b61016a610e38565b6040516101779190611d6c565b60405180910390f35b610188610e62565b6040516101959190611e1d565b60405180910390f35b6101a6610e75565b005b6101b0610ffa565b6040516101bd9190611dfb565b60405180910390f35b6101e060048036038101906101db9190611736565b61116e565b005b6101ea611221565b6040516101f79190611fe1565b60405180910390f35b610208611227565b6040516102159190611dd9565b60405180910390f35b6102266112b5565b005b61023061143a565b005b61023a6115bf565b6040516102479190611e1d565b60405180910390f35b600160003373ffffffffffffffffffffffffffffffffffffffff1673ffffffffffffffffffffffffffffffffffffffff16815260200190815260200160002060000160009054906101000a900460ff166102df576040517f08c379a00000000000000000000000000000000000000000000000000000000081526004016102d690611f21565b60405180910390fd5b600360058111156102ec57fe5b600060149054906101000a900460ff16600581111561030757fe5b14610347576040517f08c379a000000000000000000000000000000000000000000000000000000000815260040161033e90611e81565b60405180910390fd5b600160003373ffffffffffffffffffffffffffffffffffffffff1673ffffffffffffffffffffffffffffffffffffffff16815260200190815260200160002060000160019054906101000a900460ff16156103d7576040517f08c379a00000000000000000000000000000000000000000000000000000000081526004016103ce90611f41565b60405180910390fd5b600280549050811061041e576040517f08c379a000000000000000000000000000000000000000000000000000000000815260040161041590611ee1565b60405180910390fd5b80600160003373ffffffffffffffffffffffffffffffffffffffff1673ffffffffffffffffffffffffffffffffffffffff1681526020019081526020016000206001018190555060018060003373ffffffffffffffffffffffffffffffffffffffff1673ffffffffffffffffffffffffffffffffffffffff16815260200190815260200160002060000160016101000a81548160ff021916908315150217905550600281815481106104cc57fe5b9060005260206000209060020201600101600081548092919060010191905055507f4d99b957a2bc29a30ebd96a7be8e68fe50a3c701db28a91436490b7d53870ca4338260405161051e929190611d87565b60405180910390a150565b600160003373ffffffffffffffffffffffffffffffffffffffff1673ffffffffffffffffffffffffffffffffffffffff16815260200190815260200160002060000160009054906101000a900460ff166105b8576040517f08c379a00000000000000000000000000000000000000000000000000000000081526004016105af90611f21565b60405180910390fd5b600160058111156105c557fe5b600060149054906101000a900460ff1660058111156105e057fe5b14610620576040517f08c379a000000000000000000000000000000000000000000000000000000000815260040161061790611fa1565b60405180910390fd5b600160003373ffffffffffffffffffffffffffffffffffffffff1673ffffffffffffffffffffffffffffffffffffffff16815260200190815260200160002060000160029054906101000a900460ff16156106b0576040517f08c379a00000000000000000000000000000000000000000000000000000000081526004016106a790611e61565b60405180910390fd5b6002604051806040016040528083815260200160008152509080600181540180825580915050600190039060005260206000209060020201600090919091909150600082015181600001908051906020019061070d9291906115d5565b5060208201518160010155505060018060003373ffffffffffffffffffffffffffffffffffffffff1673ffffffffffffffffffffffffffffffffffffffff16815260200190815260200160002060000160026101000a81548160ff0219169083151502179055507f92e393e9b54e2f801d3ea4beb0c5e71a21cc34a5d34b77d0fb8a3aa1650dc18f6002805490506040516107a89190611fe1565b60405180910390a150565b3373ffffffffffffffffffffffffffffffffffffffff16600560009054906101000a900473ffffffffffffffffffffffffffffffffffffffff1673ffffffffffffffffffffffffffffffffffffffff1614610843576040517f08c379a000000000000000000000000000000000000000000000000000000000815260040161083a90611f81565b60405180910390fd5b6004600581111561085057fe5b600060149054906101000a900460ff16600581111561086b57fe5b146108ab576040517f08c379a00000000000000000000000000000000000000000000000000000000081526004016108a290611fc1565b60405180910390fd5b6000809050600080905060008090505b6002805490508110156109205782600282815481106108d657fe5b906000526020600020906002020160010154111561091357809150600281815481106108fe57fe5b90600052602060002090600202016001015492505b80806001019150506108bb565b50806004819055506005600060146101000a81548160ff0219169083600581111561094757fe5b02179055507f0e5e95ff8725ab3e7a4b6b59998a4c344c2aa8d1485f5e60cb7f337768e6134760405160405180910390a17f0a97a4ee45751e2abf3e4fc8946939630b11b371ea8ae39ccdc3056e98f5cc3f600460056040516109ab929190611e38565b60405180910390a15050565b3373ffffffffffffffffffffffffffffffffffffffff16600560009054906101000a900473ffffffffffffffffffffffffffffffffffffffff1673ffffffffffffffffffffffffffffffffffffffff1614610a47576040517f08c379a0000000000000000000000000000000000000000000000000000000008152600401610a3e90611f81565b60405180910390fd5b60006005811115610a5457fe5b600060149054906101000a900460ff166005811115610a6f57fe5b14610aaf576040517f08c379a0000000000000000000000000000000000000000000000000000000008152600401610aa690611ea1565b60405180910390fd5b600160008273ffffffffffffffffffffffffffffffffffffffff1673ffffffffffffffffffffffffffffffffffffffff16815260200190815260200160002060000160009054906101000a900460ff1615610b3f576040517f08c379a0000000000000000000000000000000000000000000000000000000008152600401610b3690611f61565b60405180910390fd5b6003819080600181540180825580915050600190039060005260206000200160009091909190916101000a81548173ffffffffffffffffffffffffffffffffffffffff021916908373ffffffffffffffffffffffffffffffffffffffff16021790555060405180608001604052806001151581526020016000151581526020016000151581526020016000815250600160008373ffffffffffffffffffffffffffffffffffffffff1673ffffffffffffffffffffffffffffffffffffffff16815260200190815260200160002060008201518160000160006101000a81548160ff02191690831515021790555060208201518160000160016101000a81548160ff02191690831515021790555060408201518160000160026101000a81548160ff021916908315150217905550606082015181600101559050507fb6be2187d059cc2a55fe29e0e503b566e1e0f8c8780096e185429350acffd3dd81604051610ca89190611d6c565b60405180910390a150565b3373ffffffffffffffffffffffffffffffffffffffff16600560009054906101000a900473ffffffffffffffffffffffffffffffffffffffff1673ffffffffffffffffffffffffffffffffffffffff1614610d43576040517f08c379a0000000000000000000000000000000000000000000000000000000008152600401610d3a90611f81565b60405180910390fd5b60016005811115610d5057fe5b600060149054906101000a900460ff166005811115610d6b57fe5b14610dab576040517f08c379a0000000000000000000000000000000000000000000000000000000008152600401610da290611fa1565b60405180910390fd5b6002600060146101000a81548160ff02191690836005811115610dca57fe5b02179055507f240cb87b2e4df4c318e72bd714d45a9cad60249e883ff56b1fffd83a4595a8fa60405160405180910390a17f0a97a4ee45751e2abf3e4fc8946939630b11b371ea8ae39ccdc3056e98f5cc3f60016002604051610e2e929190611e38565b60405180910390a1565b6000600560009054906101000a900473ffffffffffffffffffffffffffffffffffffffff16905090565b600060149054906101000a900460ff1681565b3373ffffffffffffffffffffffffffffffffffffffff16600560009054906101000a900473ffffffffffffffffffffffffffffffffffffffff1673ffffffffffffffffffffffffffffffffffffffff1614610f05576040517f08c379a0000000000000000000000000000000000000000000000000000000008152600401610efc90611f81565b60405180910390fd5b60036005811115610f1257fe5b600060149054906101000a900460ff166005811115610f2d57fe5b14610f6d576040517f08c379a0000000000000000000000000000000000000000000000000000000008152600401610f6490611e81565b60405180910390fd5b6004600060146101000a81548160ff02191690836005811115610f8c57fe5b02179055507fc379d349a6301baf50fb2f98d829f4ae10b1cdb7c66f4e4d8117302df7b8cd4c60405160405180910390a17f0a97a4ee45751e2abf3e4fc8946939630b11b371ea8ae39ccdc3056e98f5cc3f60036004604051610ff0929190611e38565b60405180910390a1565b60606000600581111561100957fe5b600060149054906101000a900460ff16600581111561102457fe5b1415611065576040517f08c379a000000000000000000000000000000000000000000000000000000000815260040161105c90611fa1565b60405180910390fd5b6002805480602002602001604051908101604052809291908181526020016000905b828210156111655783829060005260206000209060020201604051806040016040529081600082018054600181600116156101000203166002900480601f0160208091040260200160405190810160405280929190818152602001828054600181600116156101000203166002900480156111435780601f1061111857610100808354040283529160200191611143565b820191906000526020600020905b81548152906001019060200180831161112657829003601f168201915b5050505050815260200160018201548152505081526020019060010190611087565b50505050905090565b6000809054906101000a900473ffffffffffffffffffffffffffffffffffffffff1673ffffffffffffffffffffffffffffffffffffffff1663a9059cbb83836040518363ffffffff1660e01b81526004016111ca929190611db0565b602060405180830381600087803b1580156111e457600080fd5b505af11580156111f8573d6000803e3d6000fd5b505050506040513d601f19601f8201168201806040525081019061121c9190611772565b505050565b60045481565b606060038054806020026020016040519081016040528092919081815260200182805480156112ab57602002820191906000526020600020905b8160009054906101000a900473ffffffffffffffffffffffffffffffffffffffff1673ffffffffffffffffffffffffffffffffffffffff1681526020019060010190808311611261575b5050505050905090565b3373ffffffffffffffffffffffffffffffffffffffff16600560009054906101000a900473ffffffffffffffffffffffffffffffffffffffff1673ffffffffffffffffffffffffffffffffffffffff1614611345576040517f08c379a000000000000000000000000000000000000000000000000000000000815260040161133c90611f81565b60405180910390fd5b6000600581111561135257fe5b600060149054906101000a900460ff16600581111561136d57fe5b146113ad576040517f08c379a00000000000000000000000000000000000000000000000000000000081526004016113a490611f01565b60405180910390fd5b6001600060146101000a81548160ff021916908360058111156113cc57fe5b02179055507f344c25562921d075a298d34b6dd1fd00d36ff293974539dfd4a8c625d9f0064c60405160405180910390a17f0a97a4ee45751e2abf3e4fc8946939630b11b371ea8ae39ccdc3056e98f5cc3f60006001604051611430929190611e38565b60405180910390a1565b3373ffffffffffffffffffffffffffffffffffffffff16600560009054906101000a900473ffffffffffffffffffffffffffffffffffffffff1673ffffffffffffffffffffffffffffffffffffffff16146114ca576040517f08c379a00000000000000000000000000000000000000000000000000000000081526004016114c190611f81565b60405180910390fd5b600260058111156114d757fe5b600060149054906101000a900460ff1660058111156114f257fe5b14611532576040517f08c379a000000000000000000000000000000000000000000000000000000000815260040161152990611ec1565b60405180910390fd5b6003600060146101000a81548160ff0219169083600581111561155157fe5b02179055507f1b8e19a458c1bcd88553332c518cc5c4e2d5793e712ee766d4f1c14f672ef1f560405160405180910390a17f0a97a4ee45751e2abf3e4fc8946939630b11b371ea8ae39ccdc3056e98f5cc3f600260036040516115b5929190611e38565b60405180910390a1565b60008060149054906101000a900460ff16905090565b828054600181600116156101000203166002900490600052602060002090601f016020900481019282601f1061161657805160ff1916838001178555611644565b82800160010185558215611644579182015b82811115611643578251825591602001919060010190611628565b5b5090506116519190611655565b5090565b61167791905b8082111561167357600081600090555060010161165b565b5090565b90565b600081359050611689816121f7565b92915050565b60008151905061169e8161220e565b92915050565b600082601f8301126116b557600080fd5b81356116c86116c382612029565b611ffc565b915080825260208301602083018583830111156116e457600080fd5b6116ef838284612197565b50505092915050565b60008135905061170781612225565b92915050565b60006020828403121561171f57600080fd5b600061172d8482850161167a565b91505092915050565b6000806040838503121561174957600080fd5b60006117578582860161167a565b9250506020611768858286016116f8565b9150509250929050565b60006020828403121561178457600080fd5b60006117928482850161168f565b91505092915050565b6000602082840312156117ad57600080fd5b600082013567ffffffffffffffff8111156117c757600080fd5b6117d3848285016116a4565b91505092915050565b6000602082840312156117ee57600080fd5b60006117fc848285016116f8565b91505092915050565b60006118118383611840565b60208301905092915050565b60006118298383611d11565b905092915050565b61183a8161214f565b82525050565b611849816120f4565b82525050565b611858816120f4565b82525050565b600061186982612075565b61187381856120b0565b935061187e83612055565b8060005b838110156118af5781516118968882611805565b97506118a183612096565b925050600181019050611882565b5085935050505092915050565b60006118c782612080565b6118d181856120c1565b9350836020820285016118e385612065565b8060005b8581101561191f5784840389528151611900858261181d565b945061190b836120a3565b925060208a019950506001810190506118e7565b50829750879550505050505092915050565b61193a81612161565b82525050565b600061194b8261208b565b61195581856120d2565b93506119658185602086016121a6565b61196e816121d9565b840191505092915050565b60006119866016836120e3565b91507f50726f706f736974696f6e2064656a61206661697465000000000000000000006000830152602082019050919050565b60006119c66011836120e3565b91507f566f74652070617320656e20636f7572730000000000000000000000000000006000830152602082019050919050565b6000611a066024836120e3565b91507f456e72656769737472656d656e742064657320656c656374657572732074657260008301527f6d696e65000000000000000000000000000000000000000000000000000000006020830152604082019050919050565b6000611a6c602c836120e3565b91507f456e72656769737472656d656e74206465732070726f706f736974696f6e732060008301527f706173207465726d696e656500000000000000000000000000000000000000006020830152604082019050919050565b6000611ad2601a836120e3565b91507f49642064652070726f706f736974696f6e20696e76616c6964650000000000006000830152602082019050919050565b6000611b126027836120e3565b91507f456e72656769737472656d656e74206465732070726f706f736974696f6e732060008301527f7465726d696e65000000000000000000000000000000000000000000000000006020830152604082019050919050565b6000611b78600b836120e3565b91507f50617320696e73637269740000000000000000000000000000000000000000006000830152602082019050919050565b6000611bb86009836120e3565b91507f44656a6120766f746500000000000000000000000000000000000000000000006000830152602082019050919050565b6000611bf8601a836120e3565b91507f416472657373652064656a6120656e72656769737472656520210000000000006000830152602082019050919050565b6000611c38600c836120e3565b91507f41646d696e2072657175697300000000000000000000000000000000000000006000830152602082019050919050565b6000611c78602c836120e3565b91507f456e72656769737472656d656e74206465732070726f706f736974696f6e732060008301527f70617320656e20636f75727300000000000000000000000000000000000000006020830152604082019050919050565b6000611cde6010836120e3565b91507f566f746520706173207465726d696e65000000000000000000000000000000006000830152602082019050919050565b60006040830160008301518482036000860152611d2e8282611940565b9150506020830151611d436020860182611d4e565b508091505092915050565b611d5781612145565b82525050565b611d6681612145565b82525050565b6000602082019050611d81600083018461184f565b92915050565b6000604082019050611d9c6000830185611831565b611da96020830184611d5d565b9392505050565b6000604082019050611dc5600083018561184f565b611dd26020830184611d5d565b9392505050565b60006020820190508181036000830152611df3818461185e565b905092915050565b60006020820190508181036000830152611e1581846118bc565b905092915050565b6000602082019050611e326000830184611931565b92915050565b6000604082019050611e4d6000830185611931565b611e5a6020830184611931565b9392505050565b60006020820190508181036000830152611e7a81611979565b9050919050565b60006020820190508181036000830152611e9a816119b9565b9050919050565b60006020820190508181036000830152611eba816119f9565b9050919050565b60006020820190508181036000830152611eda81611a5f565b9050919050565b60006020820190508181036000830152611efa81611ac5565b9050919050565b60006020820190508181036000830152611f1a81611b05565b9050919050565b60006020820190508181036000830152611f3a81611b6b565b9050919050565b60006020820190508181036000830152611f5a81611bab565b9050919050565b60006020820190508181036000830152611f7a81611beb565b9050919050565b60006020820190508181036000830152611f9a81611c2b565b9050919050565b60006020820190508181036000830152611fba81611c6b565b9050919050565b60006020820190508181036000830152611fda81611cd1565b9050919050565b6000602082019050611ff66000830184611d5d565b92915050565b6000604051905081810181811067ffffffffffffffff8211171561201f57600080fd5b8060405250919050565b600067ffffffffffffffff82111561204057600080fd5b601f19601f8301169050602081019050919050565b6000819050602082019050919050565b6000819050602082019050919050565b600081519050919050565b600081519050919050565b600081519050919050565b6000602082019050919050565b6000602082019050919050565b600082825260208201905092915050565b600082825260208201905092915050565b600082825260208201905092915050565b600082825260208201905092915050565b60006120ff82612125565b9050919050565b60008115159050919050565b6000819050612120826121ea565b919050565b600073ffffffffffffffffffffffffffffffffffffffff82169050919050565b6000819050919050565b600061215a82612173565b9050919050565b600061216c82612112565b9050919050565b600061217e82612185565b9050919050565b600061219082612125565b9050919050565b82818337600083830152505050565b60005b838110156121c45780820151818401526020810190506121a9565b838111156121d3576000848401525b50505050565b6000601f19601f8301169050919050565b600681106121f457fe5b50565b612200816120f4565b811461220b57600080fd5b50565b61221781612106565b811461222257600080fd5b50565b61222e81612145565b811461223957600080fd5b5056fea2646970667358221220d220140437cbe816d1c70ed02a414c8347ec24e72b337ea9c526cc771cc85b9564736f6c634300060b0033",
  "immutableReferences": {},
  "source": "// SPDX-License-Identifier: MIT\npragma solidity 0.6.11;\npragma experimental ABIEncoderV2;\n\nimport '@openzeppelin/contracts/token/ERC20/IERC20.sol';\n\n\n\n/**\n * @title Voting\n * @author groupe 5 : yann, louisplessis, oudom\n * @notice Dfi 1\n * @dev administrateur du vote = owner\n */\n contract Voting {\n    IERC20 dai;\n\n\n\n    // Les diffrentes phases du vote se succdant\n    enum WorkflowStatus {\n        RegisteringVoters, // 0\n        ProposalsRegistrationStarted, // 1\n        ProposalsRegistrationEnded, // 2\n        VotingSessionStarted, // 3\n        VotingSessionEnded, // 4\n        VotesTallied // 5\n    }\n\n    event VoterRegistered(address voterAddress);\n    event ProposalsRegistrationStarted();\n    event ProposalsRegistrationEnded();\n    event ProposalRegistered(uint proposalId);\n    event VotingSessionStarted();\n    event VotingSessionEnded();\n    event Voted (address voter, uint proposalId);\n    event VotesTallied();\n    event WorkflowStatusChange(WorkflowStatus previousStatus, WorkflowStatus newStatus);\n\n    struct Voter {\n        bool isRegistered;\n        bool hasVoted;\n        bool hasProposed; // amlioration par rapport  l'nonc\n        uint votedProposalId;\n    }\n\n    struct Proposal {\n        string description;\n        uint voteCount;\n    }\n\n    // status du contrat\n    WorkflowStatus public workflowStatus;\n    mapping (address => Voter) private whitelist;\n    // pour enregistrer les propositions\n    Proposal[] private proposals;\n      // pour get all users in whitelist, impossible de return un mapping?\n    address[] private whitelistArray;\n    // index de la proposition ayant reu le plus de votes, commence  0\n    uint public winningProposalId;\n    address private admin;\n\n    /**\n     * @notice Initialise le deployer comme tant l'admin.\n     */\n    constructor (address daiAddress) public {\n        admin = msg.sender;\n        dai = IERC20(daiAddress);\n\n    }\n\n    modifier onlyAdmin() {\n        require(admin == msg.sender, \"Admin requis\");\n        _;\n    }\n\n    modifier isWhitelisted() {\n        require(whitelist[msg.sender].isRegistered, \"Pas inscrit\");\n        _;\n    }\n\n   /**\n    * @notice Retourne l'adresse de l'admin/owner.\n    */\n    function owner() external view returns(address) {\n        return admin;\n    }\n\n    // fonction qui permet d'effectuer un transfer de dai vers le recipient\n    function foo(address recipient, uint amount) external {\n        // quelques instructions\n        dai.transfer(recipient, amount);\n    }\n\n   /**\n    * @notice L'administrateur du vote enregistre une liste blanche d'lecteurs identifis par leur adresse Ethereum.\n    */\n    function register(address addr) external onlyAdmin {\n        require(workflowStatus == WorkflowStatus.RegisteringVoters, \"Enregistrement des electeurs termine\");\n        require(!whitelist[addr].isRegistered, \"Adresse deja enregistree !\");\n        whitelistArray.push(addr);\n        whitelist[addr] = Voter(true, false, false, 0);\n        emit VoterRegistered(addr);\n    }\n\n    /**\n     * @notice L'administrateur du vote commence la session d'enregistrement de la proposition.\n     */\n    function startProposalsRegistration() external onlyAdmin {\n        require(workflowStatus == WorkflowStatus.RegisteringVoters, \"Enregistrement des propositions termine\");\n        workflowStatus = WorkflowStatus.ProposalsRegistrationStarted;\n        emit ProposalsRegistrationStarted();\n        emit WorkflowStatusChange(WorkflowStatus.RegisteringVoters, WorkflowStatus.ProposalsRegistrationStarted);\n    }\n\n    /**\n     * @notice Permet de rcuprer la liste des propositions.\n     */\n    function getProposal() external view returns (Proposal[] memory){\n        require(workflowStatus != WorkflowStatus.RegisteringVoters, \"Enregistrement des propositions pas en cours\");\n        return proposals;\n    }\n\n    /**\n     * @notice Permet de rcuprer la liste des propositions.\n     */\n    function getWhitelist() external view returns (address[] memory){\n        return whitelistArray;\n    }\n\n\n    function getWorkflowStatus() external view returns (WorkflowStatus) {\n         return workflowStatus;       \n     }\n\n    /**\n     * @notice Les lecteurs inscrits sont autoriss  enregistrer leurs propositions pendant que la session d'enregistrement est active.\n     */\n    function registerProposal(string memory description) external isWhitelisted {\n        require(workflowStatus == WorkflowStatus.ProposalsRegistrationStarted, \"Enregistrement des propositions pas en cours\");\n        require(!whitelist[msg.sender].hasProposed, \"Proposition deja faite\");\n        proposals.push(Proposal(description, 0));\n        whitelist[msg.sender].hasProposed = true;\n        emit ProposalRegistered(proposals.length);\n    }\n\n    /**\n     * @notice  L'administrateur de vote met fin  la session d'enregistrement des propositions.\n     */\n    function endProposalsRegistration() external onlyAdmin {\n        require(workflowStatus == WorkflowStatus.ProposalsRegistrationStarted, \"Enregistrement des propositions pas en cours\");\n        workflowStatus = WorkflowStatus.ProposalsRegistrationEnded;\n        emit ProposalsRegistrationEnded();\n        emit WorkflowStatusChange(WorkflowStatus.ProposalsRegistrationStarted, WorkflowStatus.ProposalsRegistrationEnded);\n    }\n\n    /**\n     * @notice L'administrateur du vote commence la session de vote.\n     */\n    function startVotingSession() external onlyAdmin {\n        require(workflowStatus == WorkflowStatus.ProposalsRegistrationEnded, \"Enregistrement des propositions pas terminee\");\n        workflowStatus = WorkflowStatus.VotingSessionStarted;\n        emit VotingSessionStarted();\n        emit WorkflowStatusChange(WorkflowStatus.ProposalsRegistrationEnded, WorkflowStatus.VotingSessionStarted);\n    }\n\n    /**\n     * @notice Les lecteurs inscrits votent pour leurs propositions prfres.\n     */\n    function vote(uint proposalId) external isWhitelisted {\n        require(workflowStatus == WorkflowStatus.VotingSessionStarted, \"Vote pas en cours\");\n        require(!whitelist[msg.sender].hasVoted, \"Deja vote\");\n        require(proposalId < proposals.length , \"Id de proposition invalide\");\n        whitelist[msg.sender].votedProposalId = proposalId;\n        whitelist[msg.sender].hasVoted = true;\n        proposals[proposalId].voteCount++;\n        emit Voted(msg.sender, proposalId);\n    }\n\n    /**\n     * @notice L'administrateur du vote met fin  la session de vote.\n     */\n    function endVotingSession() external onlyAdmin {\n        require(workflowStatus == WorkflowStatus.VotingSessionStarted, \"Vote pas en cours\");\n        workflowStatus = WorkflowStatus.VotingSessionEnded;\n        emit VotingSessionEnded();\n        emit WorkflowStatusChange(WorkflowStatus.VotingSessionStarted, WorkflowStatus.VotingSessionEnded);\n    }\n\n    /**\n     * @notice L'administrateur du vote comptabilise les votes.\n     */\n    function tally() external onlyAdmin {\n        require(workflowStatus == WorkflowStatus.VotingSessionEnded, \"Vote pas termine\");\n        uint maxVoteCount = 0;\n        uint winningProposalIdLocal = 0;\n        for (uint i = 0; i < proposals.length; i++) {\n            if (proposals[i].voteCount > maxVoteCount) {\n                winningProposalIdLocal = i;\n                maxVoteCount = proposals[i].voteCount;\n            }\n        }\n        winningProposalId = winningProposalIdLocal;\n        workflowStatus = WorkflowStatus.VotesTallied;\n        emit VotesTallied();\n        emit WorkflowStatusChange(WorkflowStatus.VotingSessionEnded, WorkflowStatus.VotesTallied);\n    }\n}\n",
  "sourcePath": "/Users/louisplessis/Documents/Alyra/ChainForest/contracts/Voting.sol",
  "compiler": {
    "name": "solc",
    "version": "0.6.11+commit.5ef660b1.Emscripten.clang"
  },
  "schemaVersion": "3.3.4",
  "updatedAt": "2021-04-08T14:13:58.507Z",
  "devdoc": {
    "author": "groupe 5 : yann, louisplessis, oudom",
    "details": "administrateur du vote = owner",
    "kind": "dev",
    "methods": {},
    "title": "Voting",
    "version": 1
  },
  "userdoc": {
    "kind": "user",
    "methods": {
      "constructor": "Initialise le deployer comme tant l'admin.",
      "endProposalsRegistration()": {
        "notice": "L'administrateur de vote met fin  la session d'enregistrement des propositions."
      },
      "endVotingSession()": {
        "notice": "L'administrateur du vote met fin  la session de vote."
      },
      "getProposal()": {
        "notice": "Permet de rcuprer la liste des propositions."
      },
      "getWhitelist()": {
        "notice": "Permet de rcuprer la liste des propositions."
      },
      "owner()": {
        "notice": "Retourne l'adresse de l'admin/owner."
      },
      "register(address)": {
        "notice": "L'administrateur du vote enregistre une liste blanche d'lecteurs identifis par leur adresse Ethereum."
      },
      "registerProposal(string)": {
        "notice": "Les lecteurs inscrits sont autoriss  enregistrer leurs propositions pendant que la session d'enregistrement est active."
      },
      "startProposalsRegistration()": {
        "notice": "L'administrateur du vote commence la session d'enregistrement de la proposition."
      },
      "startVotingSession()": {
        "notice": "L'administrateur du vote commence la session de vote."
      },
      "tally()": {
        "notice": "L'administrateur du vote comptabilise les votes."
      },
      "vote(uint256)": {
        "notice": "Les lecteurs inscrits votent pour leurs propositions prfres."
      }
    },
    "notice": "Dfi 1",
    "version": 1
  }
}